:020000040800F2
:10000000C04400204D020008A50E00089D0E000807
:10001000A10E000845040008C110000800000000FF
:10002000000000000000000000000000AD0E00080D
:100030004904000800000000A90E0008B10E0008E5
:1000400067020008670200086702000867020008EC
:1000500067020008670200086702000867020008DC
:1000600067020008670200086702000867020008CC
:1000700067020008670200086702000867020008BC
:1000800067020008670200086702000867020008AC
:10009000670200086702000867020008670200089C
:1000A000670200086702000867020008670200088C
:1000B000670200086702000867020008670200087C
:1000C000670200086702000867020008670200086C
:1000D000670200086702000867020008670200085C
:1000E000670200086702000867020008670200084C
:1000F000810F000867020008670200086702000815
:10010000670200086702000867020008670200082B
:10011000670200086702000867020008670200081B
:10012000670200086702000867020008670200080B
:1001300067020008670200086702000867020008FB
:1001400067020008670200086702000867020008EB
:1001500067020008670200086702000867020008DB
:1001600067020008670200086702000867020008CB
:10017000670200086702000867020008000000002C
:1001800067020008670200086702000867020008AB
:10019000670200086702000867020008670200089B
:1001A00000000000000000006702000800F002F8F4
:1001B00000F03CF80AA090E8000C82448344AAF1C5
:1001C0000107DA4501D100F031F8AFF2090EBAE8C3
:1001D0000F0013F0010F18BFFB1A43F0010318477B
:1001E000540F0000740F0000103A24BF78C878C183
:1001F000FAD8520724BF30C830C144BF04680C602D
:10020000704700000023002400250026103A28BF74
:1002100078C1FBD8520728BF30C148BF0B60704778
:100220001FB500F06EFF1FBD10B510BD00F0D0F877
:100230001146FFF7F5FF00F045FF00F0EEF803B4BC
:10024000FFF7F2FF03BC00F0F5F800000948804713
:1002500009480047FEE7FEE7FEE7FEE7FEE7FEE7A8
:10026000FEE7FEE7FEE7FEE704480549054A064BC0
:10027000704700006D0F0008AD010008C0000020AD
:10028000C0440020C0400020C040002053EA020CBF
:1002900000F069802DE9F04B4FF00006002B1FBFE6
:1002A000B3FA83F503FA05F424FA05F65E4012BFAB
:1002B0001643B2FA82F502FA05F4C5F120051EBF15
:1002C00022FA05FC44EA0C04203556EA044C4FEAB5
:1002D000144418BF641C4FF000084FF0000990420E
:1002E00071EB030C39D3002919BFB1FA81F701FA78
:1002F00007F6B0FA80F700FA07F6C7F120071EBF2D
:1003000020FA07FC46EA0C062037B6FBF4FCA7EB04
:100310000507103F07F01F0BCBF120062CFA06F65D
:100320000CFA0BFB44BFB3460026202FA4BF5E4649
:100330004FF0000B5BEA060C08BF4FF0010B19EB06
:100340000B0948EB0608ABFB027C06FB02CC0BFB5F
:1003500003CCC01B71EB0C01C1E70B4602464146C2
:100360004846BDE8F08B13B5084318BF4FF0FF3087
:100370000146AFF30080BDE81C4070474FF000021B
:1003800000B5134694469646203922BFA0E80C508B
:10039000A0E80C50B1F12001BFF4F7AF090728BF66
:1003A000A0E80C5048BF0CC05DF804EB890028BFE2
:1003B00040F8042B08BF704748BF20F8022B11F00B
:1003C000804F18BF00F8012B704770477047704787
:1003D000754600F02BF8AE4605006946534620F0FE
:1003E0000700854618B020B5FFF73EFFBDE8204066
:1003F0004FF000064FF000074FF000084FF0000BE1
:10040000AC46ACE8C009ACE8C009ACE8C009ACE84F
:10041000C00921F007018D46704710B50446AFF3BF
:1004200000802046BDE81040FFF709BF0048704734
:100430001000002001491820ABBEFEE72600020094
:1004400070470000FEE700007047000040F2B8006F
:10045000C2F200000068704740F2040040F2B801A8
:10046000C2F20000C2F2000100780A68104408607D
:100470007047000080B543F60040C4F202000168F6
:1004800041F400710160016841F48061016001681C
:1004900041F480710160032000F0B8F80F2000F0F3
:1004A00005F800F05BF8002080BD000070B586B054
:1004B000002543F640010195C4F202010A68044692
:1004C00042F080020A60096801A801F080010191F0
:1004D0000199694600F098F9049E002E18BF012684
:1004E00000F0B2F94DF68361B040C4F21B31A0FBBD
:1004F00001014FF0FF3000EB914140F2700041F6F6
:100500000042C2F20000C4F2000240F2E733C0E948
:100510000021C0E902530561856100F083FB0546B7
:10052000C0B940F27000C2F2000000F0ABFB05461B
:1005300080B92C2000F02EF80F2C0AD82C20214650
:10054000002200F037F840F20800C2F20000046018
:1005500000E00125284606B070BD000082B00020F2
:1005600043F640010190C4F202014A6842F480421D
:100570004A604A6802F480420192019A0090086839
:1005800040F080500860086800F0805000900098AB
:1005900002B07047002848BF704700F01F010122D9
:1005A00002FA01F14EF200124009CEF2000242F8C6
:1005B0002010704710B54EF60C5CCEF2000CDCF843
:1005C0000030C3F3022E8EF00704042C28BF04244D
:1005D000BEF103034FF0FF3E0EFA04F438BF0023D0
:1005E000A14399400EFA03F39A43114300F160428C
:1005F00000F00F03090102F56442043B6344002844
:1006000048BF03F10C02117010BD00004EF60C51F2
:10061000CEF200010A684FF6FF031A4060F30A2287
:1006200042F0806040F0FD700860704770B582B0A5
:100630000020019043F64000C4F202000168402609
:1006400041F0805101600068C4F20E2600F0805035
:100650000190019847F204050120C4F200053060C2
:10066000FFF7F4FE044600BF2868C00306D4FFF776
:10067000EDFE001BB0F57A7FF6D90EE00120706028
:10068000FFF7E4FE044600BF2868800308D4FFF7A4
:10069000DDFE001BB0F57A7FF6D9032002B070BDF5
:1006A000002002B070BD00002DE9F041002800F0EC
:1006B0008B8043F60808C4F202080446D8F8F80311
:1006C0000D4600F00F00884207D288F8F853D8F89A
:1006D000F80300F00F00A84276D12068810717D5F3
:1006E000410705D5D8F8001041F4E051C8F80010D2
:1006F000010705D5D8F8001041F46041C8F8001092
:10070000D8F80010A26821F0F0011143C8F80010D9
:10071000C0073FD1D8F8F80300F00F00A84207D96E
:1007200088F8F853D8F8F80300F00F00A8424BD12E
:100730002068410707D5D8F80010E26821F4E0519D
:100740001143C8F80010000708D5D8F80000216947
:1007500020F4604040EAC100C8F8000000F088F8CA
:10076000D8F8001041F21C12C1F30311C0F60002C8
:10077000515C40F2000220FA01F140F20800C2F29E
:1007800000000068C2F200021160FFF78FFE002037
:10079000BDE8F0816068811E022907D258F8081C64
:1007A00089015CBF0120BDE8F08110E0012807D17C
:1007B00058F8081C89035CBF0120BDE8F08106E001
:1007C00058F8081C890702D40120BDE8F081D8F848
:1007D000001021F003010843C8F80000FFF736FEBF
:1007E000064641F2883700BFD8F80000616800F083
:1007F0000C00B0EB810F8DD0FFF728FE801BB842B4
:10080000F2D90320BDE8F0810F22026043F608020E
:10081000C4F20202136803F003034360136803F099
:10082000F0038360136803F4E053C360D2F800C0A0
:100830004FF4E05303EADC030361D2F8F80300F05D
:100840000F0008607047000040F2000043F6080106
:10085000C2F20000C4F202010068096841F22C12E1
:10086000C1F38221C0F60002515CC840704700000D
:1008700010B543F60404C4F20204606800F00C00F2
:1008800008280AD0042819BF42F20040C0F2F40040
:1008900041F60030C0F2B70010BD2068216823681F
:1008A000490241F60031C0F2B70100F03F02C3F344
:1008B00088105CBF42F20041C0F2F401A1FB0001CC
:1008C0000023FFF7E3FC21680222C1F3014102EBA0
:1008D0004101B0FBF1F010BD2DE9F04182B00028DC
:1008E00000F0A1800446007843F60006C007C4F279
:1008F000020643D0B06800F00C00042805D130682F
:1009000080033BD56068C8BB8DE0B06800F00C0088
:10091000082802D170684002F1D46568B5F5A02FAF
:100920000AD0B5F5803F0BD0306820F480303060BD
:10093000306820F4802006E0306840F48020306089
:10094000306840F480303060FFF780FD002D0546B0
:1009500011D000BF3068800310D4FFF777FD401B33
:100960006428F7D920E100BFFFF770FD401B642821
:100970004FF0030054D830688003F5D42078800706
:100980001AD5B06810F00C0F09D0B06800F00C0058
:10099000082840F088807068400200F18480306848
:1009A000800702D5E06801283DD13068216920F038
:1009B000F80040EAC10030602078000737D4207882
:1009C00040074AD4A56955B3B06800F00C00082868
:1009D00040F09C80012D26D07068E16900F480020F
:1009E0008A4220D1216A00F03F028A421BD147F699
:1009F000C071626A0140B1EB821F14D1A16A4FF647
:100A0000FF73C903994300F44032A1F580318A4253
:100A100009D1E16A00F07060B0EB016F03D10020F2
:100A200002B0BDE8F081012002B0BDE8F08160694C
:100A3000002840F20000C4F2472056D00121C0F83F
:100A4000801EFFF703FD0546706F8007B7D4FFF7E0
:100A5000FDFC401B0228F7D9A6E0306C10F080584E
:100A60000AD100200190306C40F080503064306C2E
:100A700000F080500190019847F20007C4F200078F
:100A80003868C00524D4386840F480703860FFF7B7
:100A9000DDFC05463868C0051AD4FFF7D7FC401BBB
:100AA0000228F7D980E0E068002851D00020C4F285
:100AB000472001210160FFF7C9FC05463068800727
:100AC0003FF573AFFFF7C2FC401B0228F6D96BE07D
:100AD000A568052D50D0012D52D0306F20F00100B7
:100AE0003067306F20F004004DE00021C0F8801E18
:100AF000FFF7ACFC054600BF706F80077FF55FAF66
:100B0000FFF7A4FC401B0228F6D94DE00027C4F2F1
:100B1000472700203866FFF799FC022D05460BD1C8
:100B20003068800158D5FFF791FC401B02284FF038
:100B30000300F5D974E700BF306880017FF56FAF1F
:100B4000FFF784FC401B02284FF00300F4D967E74D
:100B50000020C4F2472000210160FFF777FC054622
:100B6000306880077FF528AFFFF770FC401B022834
:100B70004FF00300F4D953E7306F40F004003067C2
:100B8000306F40F001003067FFF760FC002D054634
:100B900041F2883714D000BF306F800713D4FFF7BD
:100BA00055FC401BB842F7D9032002B0BDE8F081E4
:100BB000FFF74CFC401BB8424FF003003FF630AF4C
:100BC000306F8007F4D4B8F1000F7FF4FBAE306CC7
:100BD00020F080503064F5E604F11C052FCD084369
:100BE00040EA8210D9034FF6FF729143A1F580319C
:100BF00040EA05600843706001203866FFF726FC74
:100C0000044600BF306880013FF509AFFFF71EFCC6
:100C1000001B02284FF00300F4D901E770470000E1
:100C200070470000002804BF0120704710B504463B
:100C300090F83D0028B9002084F83C00204600F0E0
:100C40001FF8022084F83D002068211D00F09EF965
:100C5000012084F8460084F83E0084F83F0084F8C0
:100C6000400084F8410084F8420084F8430084F88E
:100C7000440084F8450084F83D00002010BD0000C9
:100C80007047000090F83D1001291CBF01207047FB
:100C9000022180F83D10006841F2FF72C168C4F281
:100CA0000002904241F00101C1600DDC40F2FF7191
:100CB000C4F20001884215DCB0F1804F29D040F227
:100CC0000041C4F2000122E040F2FF31C4F2010110
:100CD000884212DC41F60001C4F20001884218D0BB
:100CE000002112E040F60001C4F20001884210D059
:100CF00040F60041C4F2000109E044F20001C4F2F0
:100D00000101884205D040F20041C4F2010188424D
:100D100006D1816801F00701062904BF0020704751
:100D2000016841F001010160002070477047000038
:100D300070B504460068C5680669B10716D515F098
:100D4000020113D06FF00201016101212177806956
:100D5000800703D02046FFF7E9FF05E0204600F0BA
:100D60008DF8204600F08CF800202077700718D509
:100D700015F0040015D020686FF004010161022114
:100D80002177806910F4407F03D02046FFF7CEFF23
:100D900005E0204600F072F8204600F071F80020CF
:100DA0002077300717D515F0080014D020686FF0B1
:100DB0000801016104212177C069800703D0204622
:100DC000FFF7B4FF05E0204600F058F8204600F099
:100DD00057F800202077F00618D515F0100015D030
:100DE00020686FF01001016108212177C06910F4BB
:100DF000407F03D02046FFF799FF05E0204600F032
:100E00003DF8204600F03CF800202077F00718BF9E
:100E100015F0010002D1300609D412E020686FF00D
:100E200001010161204600F02DF8300609D515F0CA
:100E3000800006D020686FF0800101612046FFF736
:100E4000EDFE700609D515F0400006D020686FF061
:100E500040010161204600F01FF8B00658BF70BD88
:100E600015F0200008D021686FF0200220460A61AA
:100E7000BDE87040FFF7D4BE70BD000070470000B1
:100E800070470000006841F60041C4F2000188424A
:100E900018BF7047FFF7E0BA70470000FEE7000098
:100EA000FEE70000FEE7000070470000704700000A
:100EB0007047000010B592B006AC20463021FFF715
:100EC0005DFA002043F640010590CDE90300CDE92D
:100ED00001000090C4F202010A6842F080520A60E8
:100EE000096801F080510091009947F200010090DB
:100EF000C4F200010A6842F440420A600968012213
:100F000001F44041009100990221CDE90C10082024
:100F10000E90B420CDE90F01042009921022119007
:100F2000204606910A92FFF7D7FC10B172B600BFB7
:100F3000FEE7FFF77BFB10B172B600BFFEE70F20A4
:100F4000019002200290002003904FF4A0500490E2
:100F50004FF48050059001A80521FFF7A5FB10B1C3
:100F600072B600BFFEE712B010BD00004EF688500A
:100F7000CEF20000016841F470010160704700008A
:100F800040F27000C2F20000FFF7D2BE10B540F68A
:100F9000FF3E0368C4F2000E40F2004C7045C4F2FC
:100FA000010C0FDCB0F1804F19D040F20042C4F2C6
:100FB0000002904213D040F60002C4F200029042B8
:100FC0000DD010E040F60042C4F20002904206D07C
:100FD000604504D00022C4F20102904203D14A6865
:100FE00023F07003134341F6FF72C4F200029042F3
:100FF0000DDC70451FDCB0F1804F41D040F2004263
:10100000C4F2000290423BD040F6000221E043F6D9
:10101000FF72C4F20102904220DC42F20002C4F2EC
:10102000000290422CD00022C4F20102904227D04C
:10103000604525D028E040F60042C4F2000290420C
:101040001ED041F60002C4F20002904218D041F6D0
:101050000042C4F20002904212D015E044F20002B5
:10106000C4F2010290420BD044F60002C4F2010225
:10107000904205D044F20042C4F20102904203D1F2
:10108000CA6823F44073134323F080024B69D1F8FC
:1010900000E08C681A430260C46240F48062C0F8C9
:1010A00028E0624504BF09690163012141610169CA
:1010B000C90708BF10BD016921F00101016110BD20
:1010C000FEE7000082B0FFF7D5F9FFF7F3FE00203E
:1010D00043F630010190C4F202010A6842F00102B5
:1010E0000A600A6802F001020192019A0090086801
:1010F00040F080000860086800F0800000900098D0
:10110000FEE7F1EE100A4FF6FF71C0F2C03120EA9F
:10111000010040F04070E1EE100A7047000000004E
:101120000000000001020304060708090000000097
:101130000102030458110008000000201000000004
:10114000E80100086811000810000020B044000009
:1011500004020008000000000024F4000100000068
:08116000100000000000000077
:04000005080001AD41
:00000001FF
