:020000040800F2
:10000000C0450020FD020008113E0008793C0008B0
:100010000D3E0008D5150008D94300080000000077
:10002000000000000000000000000000853E000805
:10003000F915000800000000813E0008893E000814
:100040001703000817030008170300081703000828
:100050001703000817030008170300081703000818
:100060001703000817030008170300081703000808
:1000700017030008170300081703000817030008F8
:1000800017030008170300081703000817030008E8
:10009000D915000817030008170300081703000804
:1000A00017030008170300081703000817030008C8
:1000B00017030008170300081703000817030008B8
:1000C00017030008170300081703000817030008A8
:1000D0001703000817030008170300081703000898
:1000E0001703000817030008170300081703000888
:1000F0006D3F0008170300081703000817030008E6
:100100001703000817030008170300081703000867
:100110001703000817030008170300081703000857
:100120001703000817030008170300081703000847
:100130001703000817030008170300081703000837
:10014000E915000817030008170300081703000843
:100150001703000817030008170300081703000817
:100160001703000817030008170300081703000807
:100170001703000817030008170300080000000019
:1001800017030008170300081703000817030008E7
:1001900017030008170300081703000817030008D7
:1001A00000000000000000001703000800F002F843
:1001B00000F094F80AA090E8000C82448344AAF16D
:1001C0000107DA4501D100F089F8AFF2090EBAE86B
:1001D0000F0013F0010F18BFFB1A43F0010318477B
:1001E0000851000028510000103A24BF78C878C197
:1001F000FAD8520724BF30C830C144BF04680C602D
:10020000704700000023002400250026103A28BF74
:1002100078C1FBD8520728BF30C148BF0B60704778
:100220006E2900F00F82702900F05183662904F0D6
:10023000CA87652904F0C787672904F0C487612944
:1002400004F0C38703681B0A28BF41F080016929B5
:1002500000F0BC81642900F0B981752900F0B681F5
:100260006F2900F0DF82782900F01D83E92900F072
:100270007982E42900F07682F52900F07382EF2973
:1002800000F0DC82F82900F01C830368DB0928BF3A
:1002900041F08001632901F01D80732901F0228063
:1002A000E32901F02D80F32901F03280002070470E
:1002B0001FB504F07BFF01F081F80400002000214D
:1002C00004F05EFF401C60600020002104F042FF4B
:1002D000E06000F007F91FBD10B510BD01F040F857
:1002E0001146FFF7E5FF04F009FB01F01DF903B427
:1002F000FFF7F2FF03BC01F065F9000009488047F1
:1003000009480047FEE7FEE7FEE7FEE7FEE7FEE7F7
:10031000FEE7FEE7FEE7FEE704480549054A064B0F
:1003200070470000593F0008AD010008C0010020DF
:10033000C0450020C0410020C041002053EA020C0B
:1003400000F069802DE9F04B4FF00006002B1FBF35
:10035000B3FA83F503FA05F424FA05F65E4012BFFA
:100360001643B2FA82F502FA05F4C5F120051EBF64
:1003700022FA05FC44EA0C04203556EA044C4FEA04
:10038000144418BF641C4FF000084FF0000990425D
:1003900071EB030C39D3002919BFB1FA81F701FAC7
:1003A00007F6B0FA80F700FA07F6C7F120071EBF7C
:1003B00020FA07FC46EA0C062037B6FBF4FCA7EB54
:1003C0000507103F07F01F0BCBF120062CFA06F6AD
:1003D0000CFA0BFB44BFB3460026202FA4BF5E4699
:1003E0004FF0000B5BEA060C08BF4FF0010B19EB56
:1003F0000B0948EB0608ABFB027C06FB02CC0BFBAF
:1004000003CCC01B71EB0C01C1E70B460246414611
:100410004846BDE8F08B13B5084318BF4FF0FF30D6
:100420000146AFF30080BDE81C4070471CB50C4688
:10043000064B7B4469460090204600F01CF90446B8
:100440000020694600F02AF920461CBD6702000022
:1004500010B5431C02E010F8011B71B18107FAD1FD
:100460004FF0013202C88C1A8C4314EAC211F9D041
:10047000C01A0A0603D0C01E10BDC01A10BD0A045F
:1004800001D0801E10BD0902FCD0401E10BD4FF0EF
:10049000000200B5134694469646203922BFA0E8D4
:1004A0000C50A0E80C50B1F12001BFF4F7AF0907E0
:1004B00028BFA0E80C5048BF0CC05DF804EB8900D1
:1004C00028BF40F8042B08BF704748BF20F8022B14
:1004D00011F0804F18BF00F8012B7047704770472C
:1004E0007047000070B5064C7C44064D7D4404E026
:1004F0002046016808448047241DAC42F8D170BDF5
:10050000484F0000484F000070B5044685690068F8
:10051000C10601D5302600E02026C00707D070BDF7
:10052000D4E9012130469047206A401C20626D1EAC
:10053000F6D570BD70B5044685690078C00707D14F
:1005400070BDD4E9012120209047206A401C206220
:100550006D1EF6D570BD09684A0501D540B27047D9
:10056000C905FCD500B2704709684A0501D5C0B27B
:100570007047C905FCD580B2704770B50C4605467A
:10058000012A05D02878800600D5EA69002302E018
:10059000012305E05B1C934202D2E05C0028F9D104
:1005A000A869E618C01AA861286A18442862284673
:1005B000FFF7AAFF04E0D5E9012114F8010B9047E9
:1005C000B442F8D32846FFF7B5FF70BD2DE9F041DE
:1005D0000646002410687529314616A510D0FFF78D
:1005E000BAFF002802DA404213A507E031688A0703
:1005F00001D512A502E0490704D511A5012401E0A7
:10060000FFF7B2FF00210A2206F1240709E0B0FB40
:10061000F2FCB0FBF2F302FB1C00303078541846B9
:10062000491C0028F3D123462A463046BDE8F04154
:1006300000F061BA000000002D0000002B00000057
:100640002000000011680268006A530501D5087097
:100650000AE0D30501D5088006E0130603D5C217CA
:10066000C1E9000200E008600120704701694A1CEE
:1006700002610878704700B58FB0CDE901310021E3
:10068000059105497944CDE903101146684600F00B
:1006900029F90FB000BD0000E5FFFFFF0A6802F86E
:1006A000010B0A60704700002DE9FF5F15468A467E
:1006B0000446DFF8AC80F8440027D8E900103E4635
:1006C000CDE9001010E03AF816106A4602A800F0D2
:1006D00023FE411C07D02178890603D5E269391829
:1006E00091420DD80744761C2078800602D5E06937
:1006F000B84205DDAE42E6DB3AF816000028E2D14A
:10070000A069C01BA0612046FFF7FEFED8E90010DB
:10071000CDE90010002017E03AF818106A4602A848
:1007200000F0FAFDB0F1FF3F81460BD000250DF13E
:10073000080B05E0D4E901211BF8050090476D1C6A
:100740004D45F7D308F10100B0428046E4DB206A52
:10075000384420622046FFF7EDFEBDE8FF9F000011
:10076000164B00002DE9F0418046D21D22F0070211
:100770000025D2E90002F52915A614D0011E72F158
:10078000000106DA0023D0EB030063EB020211A69E
:1007900008E0D8F800108B0701D50FA602E0490742
:1007A00001D50EA601251146002408F1240704E016
:1007B00000F05CF930323A55641C50EA0102F7D17E
:1007C0002B46324621464046BDE8F04100F093B941
:1007D000000000002D0000002B00000020000000A1
:1007E00030B4002100F1240408E002F00705D2082B
:1007F000303542EA4372DB086554491C52EA03056E
:10080000F3D10468002310A2250708D504F02004C2
:100810000C4304D0C46901230CA2641EC46130BC23
:1008200000F069B910B5044621461068FFF79CFE38
:1008300002462046BDE810400023D1E7D21D22F039
:100840000701D1E90023CBE70000000030000000E1
:10085000F0B40D460188090502D5214C7C4402E024
:100860001F4C7C440E34002100F1240608E002F005
:100870000F071209E75D42EA03721B097754491C0E
:1008800052EA0307F3D102780023120704D5702D32
:1008900006D009B1022311342246F0BC00F02BB976
:1008A00001231034F8E770B504460D462146106860
:1008B000FFF75AFE024629462046BDE87040002355
:1008C000C6E7D21D22F00703D3E90023C0E703687F
:1008D000126843F0200303600823C3610023B7E7D5
:1008E000784900002DE9F05F894604464FF0000A80
:1008F000DFF874B1FB44C0F820A02046E1688847C7
:10090000002874D0252806D0D4E901219047206A18
:10091000401C2062F1E700265F462046E1688847D8
:100920002028054607DB312D05D2781910F8200C58
:1009300008B10643F1E7B00701D526F00406C4F874
:100940001CA00027C4F818A02A2D09D0284604F0BE
:10095000F9FB38B304EB8708303DC8F8185019E0AC
:1009600059F8041B204604EB87029161E16888472F
:10097000012F054618D1E069002820DA26F020066C
:100980001DE0D8F8180000EB800005EB400030387F
:10099000C8F818002046E1688847054604F0D2FBF5
:1009A0000028EED1012F0AD02E2D08D12046E16873
:1009B00088477F1C0546022F46F02006C4DBA0694D
:1009C000002803DA404246F00106A061F00701D09A
:1009D00026F010066C2D0BD0682D09D04C2D39D087
:1009E0006A2D35D0742D35D07A2D33D016E038E00D
:1009F000E1682F4620468847B842054609D16C2F4A
:100A000026D04FF48060E1680643204688470546BB
:100A100004E06C2F1AD04FF4807006430DB3A5F19B
:100A20004100192802D8203546F400664A46294676
:100A3000204626604E46FFF7F3FB80B101280BD01D
:100A4000F61D26F0070000F1080956E74020E4E70C
:100A50008020D8E70020D6E706F104094DE72846B4
:100A600052E7206ABDE8F09F0849000030B5B0F1B8
:100A70000A0271F100034FEA900E4EEA817EB0EB5C
:100A80000E0061EB91014FEA101E4EEA017E10EB61
:100A90000E0041EB11114FEA102E4EEA016E10EBE1
:100AA0000E0041EB11214FEA104E4EEA014E10EBC1
:100AB0000E0041EB1141401841F100014FEAD00016
:100AC00040EA41704FEAD1014FEA810444EA907450
:100AD00010EB800544EB01046D1944EB0404521B38
:100AE000A3414FF0000348BF0A3200D530BD401C7F
:100AF00041F1000130BD2DE9F0470D46994692467F
:100B0000044600F124080168880604D5E06921F054
:100B10001001216000E00120A84201DD471B00E038
:100B20000027A1697A1902EB0900081AA061207850
:100B3000C00602D42046FFF7E7FC002608E0D4E90F
:100B400001211AF806009047206A401C761C20629A
:100B50004E45F4DB2078C0060AD52046FFF7D4FCCA
:100B600006E0D4E9012130209047206A401C206231
:100B7000381EA7F10107F4DC07E0D4E9012118F8D9
:100B800005009047206A401C2062281EA5F101053F
:100B9000F3DC2046FFF7CEFC2078000602D50220C9
:100BA000BDE8F0870120FBE72DE9FF4F0C461E460C
:100BB0004FF0FF378BB0D2E90001DDF860800A907A
:100BC0008A46C1F30A5505B93D46002108464FF053
:100BD0000000BAF1000F00F4400005DA00EB8000DD
:100BE0004FF4400101EA50004FEA9059B9F1010F6A
:100BF00000DDB9460A9850EA4A000ED044F610507B
:100C0000A5F2FF3545432F14B8F1000F1ED07542F1
:100C1000291E1EDDC9F100021CE0B8F1010F4FF0E2
:100C2000000001D0302103E0F24305E02154401CD4
:100C3000B042FBDB30460022002121540B99C1F861
:100C40000880C1E900200FB0BDE8F08FBD1B6D1C0E
:100C5000DEE74A4600DA694206A800F0F3FB06AB7D
:100C600093E8070003AB83E8070050460A9903F0B6
:100C700088FE8DE80700A0F500501F38009003980B
:100C8000002D0ADD42F21F014A460844002303A951
:100C90000390684604F0F2F809E0A0F500504A46D7
:100CA0001F38002303A90390684604F0FCF88DE880
:100CB00007000004000C03D04FF0FF30410800E0B3
:100CC0001046B8F1000F03D00022009215461EE036
:100CD000751E05D4FFF7CAFE303262556D1EF9D578
:100CE000B3460122084302D000227F1C04E0207892
:100CF000302801D100227F1E002A099784D01DE0F0
:100D0000112D07DAFFF7B2FE303262556D1C50EA42
:100D10000102F5D1084302D00098C8B10EE00021CD
:100D2000681E05E0235C625C63542254401E491C2B
:100D30008142F7DBAB46A81B401E0990002004F857
:100D40000B000B98099AC0F80880C0E9002B7AE7DD
:100D500011264FF0000857E72DE9F04F884604466A
:100D6000D21D22F0070191B0D1E90001CDE90A01BD
:100D700004F0D0F902460B98C00F01D02D2007E0F7
:100D80002068810701D52B2002E0202101EAC00064
:100D9000032A099001D0072A05DB03464146204675
:100DA00000F010FB0BE12078800601D5E06900E03F
:100DB0000620B8F1650F814606D0B8F1660F18D04D
:100DC000B8F1670F70D131E00020B9F1110F009038
:100DD00001DB112301E009F101030AAA01A90CA812
:100DE000FFF7E2FEDDE90C70002609F101058346FC
:100DF00047E001204B4600904FF000470AAA01A9A6
:100E00000CA8FFF7D1FEDDE90DB00C995D46002678
:100E100010B909F101000D18B9EB050003D4C0F1B8
:100E2000FF3609F10105A5EB09002BE0B9F1010F2F
:100E300001DA4FF001090020B9F1110F0090484686
:100E400001DD112300E003460AAA01A90CA8FFF75F
:100E5000ABFEDDE90C704D46002683462078000786
:100E60000AD4AB4500DA5D4601A8012D04DD411925
:100E700011F8011C302907D04F4502DA17F1040F91
:100E800004DA012082460FE06D1EEEE7002F02DC3F
:100E9000ED1B3E4403E0781CA84200DD7D1CB81B1E
:100EA00000F1010A4FF000472078000703D4AA455B
:100EB00001DB4FF0FF3A0021B7F1004F0DF143087D
:100EC0008DF8431024D002202B23002F01DA7F421B
:100ED0002D230A21021EA0F1010000DC5FB197FB67
:100EE000F1FC97FBF1F201FB1C7C17460CF1300C76
:100EF00008F801CDEEE7A8F101000370218809058B
:100F000001D5452100E06521A0F1010800F8011C90
:100F100009980FA9A1EB0807FF1D00B10120411995
:100F200001EBEA70A1693844081A401EA0612078DC
:100F3000C00602D42046FFF7E7FA099828B1D4E9A1
:100F400001219047206A401C20622078C00622D5EB
:100F50002046FFF7D9FA1EE0002E04DBB34502DD80
:100F600001A8805D00E03020D4E901219047206A8B
:100F7000401C2062761CAAF101005FEA000A0AD137
:100F800000F01CFAC0680168405CD4E90121904778
:100F9000206A401C2062281EA5F10105DCDC07E068
:100FA000D4E9012118F8010B9047206A401C206207
:100FB000381EA7F10107F3DC2046FFF7BBFA032038
:100FC00011B041E62DE9F04F04460D46D21D22F046
:100FD000070089B0D0E900974846394604F09AF8EE
:100FE0000246F80F01D02D2307E02068810701D5C4
:100FF0002B2302E0202101EAC0038DF820300BB141
:10100000012000E00020032A824601D0072A04DBE9
:101010002946204600F0D6F93FE12078800601D429
:101020000D2500E0E569C7F30A560D2D49DA0021C8
:101030004FEA175B08464FF00000002F00F4400015
:1010400007DA00EB80004FF4400100EBD07001EABA
:1010500060008115012901DD4FF0FF3100224FEAC8
:10106000850CBCF1180F06D31346ACF118004FF0F5
:101070008052C24003E04FF4801323FA0CF30CF1CA
:101080000C0CBCF1200F04D3ACF1200C09FA0CF0CD
:1010900001E007FA0CF000294FF0004801DD18B913
:1010A0000FE00ED140450CD319EB02095F4121B985
:1010B000404502D19F4329EA0209BBEB175F00D0EC
:1010C000761C2088000502D57B48784402E07A48E7
:1010D0007844193808AA302302F80A30037C0AF150
:1010E0000101002E0AF1020A53546A4602DC4FF055
:1010F000300101E04FF031014FF001088DF8001090
:1011000002D0A6F2FF3603E059EA470100D06B4E49
:10111000002D02DC2178090704D54FF002082E21AA
:101120008DF80110C44600210BE0C7F303433F01D3
:10113000C35C491C6D1E02F80830052908F101083E
:1011400001DA002DF1DC00210CE000EB1973491CE1
:101150001B786D1E082902F808304FEA091908F1BA
:10116000010801DA002DF0DC21688B0602D516E0BB
:10117000A8F10108E04505DD02EB080313F8013C86
:10118000302BF5D0B8F1000F09DD02EB080313F89E
:10119000013C2E2B03D1090701D4A8F10108002D31
:1011A00005DD3E2102F808106D1E08F10108407CA3
:1011B000002E02F8080008F1010804DA2D2076421A
:1011C00002F8080002E02B2002F808000A214FF480
:1011D0007A70864208F101080BDB96FBF0F330339E
:1011E00002F8083096FBF0F308F1010800FB1366E3
:1011F00001E0642E0CDB642096FBF0F3303302F840
:10120000083096FBF0F308F1010800FB136601E0DB
:101210000A2E06DB96FBF1F0303002F8080008F1E8
:10122000010896FBF1F001FB1060303002F8080075
:10123000A16908F1010808EB050202EB0A00081A8F
:10124000A0612078C00602D42046FFF75DF9216A2C
:1012500008AE01EB0A00206204E0D4E9012116F88F
:10126000010B9047BAF1010AF7D22078C00602D5E7
:101270002046FFF749F96E4609E016F8010B3E28B3
:101280000FD0D4E901219047206A401C2062B8F1B8
:101290000108F2D22046FFF74DF909B00320BDE85E
:1012A000F08F206A2844206203E0D4E90121302035
:1012B00090476D1EEBD3F8E75641000002FCFFFF9C
:1012C00010B5436913B1AFF3008001E0FFF755F9A2
:1012D000012010BD127800F124010A7000224A702A
:1012E0000122EDE711684FF0FF32E9E710B54369DD
:1012F00013B1AFF3008001E0FFF7D6F9012010BD74
:10130000128800F1240182840022C2840122EDE7C8
:1013100011684FF0FF32E9E72DE9F04116460C461F
:10132000054600F043F8036893F80101012807D04F
:10133000FF2C12D8185D80B101202C70BDE8F0811F
:10134000D3F807013246214603F20713C71828468F
:10135000BC46BDE8F041002360474FF0FF30EDE7A9
:10136000754600F0EBF8AE4605006946534620F09E
:101370000700854618B020B5FEF7CEFFBDE8204037
:101380004FF000064FF000074FF000084FF0000B41
:10139000AC46ACE8C009ACE8C009ACE8C009ACE8B0
:1013A000C00921F007018D467047000010B500F01C
:1013B00005F8001D10BD00BFC93D00000048704782
:1013C000300000202DE9F0411F4604460326016845
:1013D000072A01F4006004DB08B116A505E016A594
:1013E00003E008B115A500E015A521F0100020606C
:1013F000A069C01EA0610FB1401EA0612046FFF78A
:1014000083F84FB1D4E9012138469047206A401C47
:101410002062C01C206206E0206AFAE7D4E90121BC
:1014200015F8010B9047761EF8D22046FFF782F898
:10143000BDE8F0814E414E006E616E00494E46009F
:10144000696E66002DE9F047814616468AB0354838
:1014500078440DC88DE80D0032487844801C03ACF8
:101460000DC884E80D0041F69B300844372190FBFD
:10147000F1F290FBF1F5A5F1800501FB12041B3C94
:1014800002D56442012000E00020DFF898A08046E9
:101490000027FA44AAF1BE0A0EE0E0070AD032465D
:1014A000684607EB470101230AEB810103F0FBFCCF
:1014B0008DE8070064107F1C002CEED1194F7F448B
:1014C000AE3F19E0E80715D007EB04100DF1180A3C
:1014D00090E80E008AE80E00C068F04201D1981929
:1014E00008903246012306A903A803F0DCFC03ABF5
:1014F00083E807006D10641C002DE3D14FF0010359
:1015000032466946B8F1000F03A802D003F0B6FCDA
:1015100001E003F0C8FCC9E90001C9F808200AB0DD
:10152000BDE8F087603E000010B50446AFF30080D0
:101530002046BDE81040FEF7DABE000000487047C4
:10154000100000200000000030B44FF0013C50F8C3
:10155000042B51F8043BCCFA52F4D51A20D1FCB933
:1015600050F8042B51F8043BCCFA52F4D51A17D199
:10157000B4B950F8042B51F8043BCCFA52F4D51A04
:101580000ED16CB950F8042B51F8043BCCFA52F44C
:10159000D51A05D1002CDAD030BC4FF000007047CE
:1015A00029BAB1FA81F111F01801D1F1200084407B
:1015B000F2D1CA40CB4012F0FF0213F0FF0330BC5F
:1015C000D01A704701491820ABBEFEE72600020082
:1015D00070470000FFE7FEE780B540F27C00C2F2F2
:1015E000000000F0FDFA80BD80B540F2A400C2F218
:1015F000000000F0F5FA80BD7047000072B6FFE70A
:10160000FEE7000084B002900191029890F820005B
:101610008DF803009DF80300012805D0FFE79DF831
:10162000030002280AD1FFE7019A0298016848697D
:101630001043486100208DF80F0008E00299486AC5
:1016400040F48020486201208DF80F00FFE79DF8EC
:101650000F0004B07047000088B006900591049216
:101660000393069890F820008DF80700069800680C
:10167000806800900598806808B9FFE700E0FFE700
:101680009DF80700012806D0FFE79DF80700022813
:1016900040F08080FFE79DF80300400700280CD44D
:1016A000FFE79DF803000007002806D4FFE79DF838
:1016B0000300C006002864D5FFE70098C0F301606E
:1016C000029002990120884003990860059880687B
:1016D00068B9FFE705980168C06840EA415006997B
:1016E0000968029A01EB0211C1F880010EE0059928
:1016F0004A688868C96840EAC200084306990968D0
:10170000029A01EB0211C1F88001FFE70598006918
:1017100006990968029A01EB0211C1F88401059843
:10172000007D01280CD1FFE706980068029900EBC4
:101730000111D1F8840140F48070C1F88401FFE701
:101740000498406806990968029A01EB0211C1F8F1
:101750008C010498006806990968029A01EB02114D
:10176000C1F8880106980068029900EB0111D1F8D0
:10177000800140F00100C1F8800100208DF81F00B9
:1017800011E00699486A40F40010486201208DF883
:101790001F0008E00699486A40F480204862012052
:1017A0008DF81F00FFE79DF81F0008B0704700008C
:1017B00086B004900391049800680190049890F812
:1017C00020008DF803009DF80300012806D0FFE7F4
:1017D0009DF80300022840F0B080FFE746F2004089
:1017E000C4F2000001900199D1F8000240F001001C
:1017F000C1F800020199D1F8000220F47C50C1F830
:1018000000020398426A0199D1F8000240EA0220DE
:10181000C1F800020398406900F01F0101208840D0
:101820000290029A0199D1F81C029043C1F81C025F
:101830000398C069F0B9FFE7029A0199D1F80C0248
:101840009043C1F80C02039A9088D168526940EA2B
:101850000140019901EBC201C1F84002039A1088CE
:101860009168526940EA0140019901EBC201C1F857
:101870004402FFE70398C06901281ED1FFE7029ADE
:101880000199D1F80C021043C1F80C02039A908818
:101890001168526940EA0140019901EBC201C1F8A7
:1018A0004002039A90899168526940EA0140019987
:1018B00001EBC201C1F84402FFE70398806940B917
:1018C000FFE7029A0199D1F804029043C1F804029B
:1018D00007E0029A0199D1F804021043C1F804020A
:1018E000FFE70398006940B9FFE7029A0199D1F830
:1018F00014029043C1F8140207E0029A0199D1F84A
:1019000014021043C1F81402FFE70398006A01288B
:1019100008D1FFE7029A0199D1F81C021043C1F8DF
:101920001C02FFE70199D1F8000220F00100C1F884
:10193000000200208DF8170008E00499486A40F47E
:101940008020486201208DF81700FFE79DF81700FE
:1019500006B0704781B0009001B0704786B0049027
:10196000039102920193049890F820008DF80300EF
:101970009DF80300012806D0FFE79DF80300022828
:1019800040F0E880FFE7039880B9FFE7049800681B
:10199000C068800748B9FFE70499486A40F400101E
:1019A000486201208DF81700DDE00FE00498006820
:1019B0000069800748B9FFE70499486A40F40010BD
:1019C000486201208DF81700CDE0FFE70498006819
:1019D000039900EB0110D0F8B00100F00400029967
:1019E00088600298806858B9FFE7049800680399F6
:1019F00000EB0110D0F8B001400D029908600AE038
:101A000004980068039900EB0110D0F8B001C008F9
:101A100002994860FFE704980068039900EB011001
:101A2000D0F8B00100F002000299C8600498006884
:101A3000039900EB0110D0F8B40100F00F00082862
:101A400004D3FFE70299082008610BE004980068BE
:101A5000039900EB0110D0F8B40100F00F000299D7
:101A60000861FFE704980068039900EB0110D0F8C3
:101A7000B40180B2000A0299886104980068039951
:101A800000EB0110D0F8B401000C029948610498F1
:101A90000068039900EB0110D0F8B80101990870B3
:101AA00004980068039900EB0110D0F8B801000A0F
:101AB0000199487004980068039900EB0110D0F870
:101AC000B801000C0199887004980068039900EB34
:101AD0000110D0F8B801000E0199C8700498006890
:101AE000039900EB0110D0F8BC010199087104982A
:101AF0000068039900EB0110D0F8BC01000A0199BD
:101B0000487104980068039900EB0110D0F8BC01FB
:101B1000000C0199887104980068039900EB01108A
:101B2000D0F8BC01000E0199C871039838B9FFE7DD
:101B300004980168C86840F02000C86006E0049876
:101B40000168086940F020000861FFE700208DF877
:101B5000170008E00499486A40F480204862012098
:101B60008DF81700FFE79DF8170006B070470000DA
:101B700083B0029000200190029890F820008DF828
:101B800003009DF80300012805D0FFE79DF803003E
:101B9000022822D1FFE702980068806840010028EF
:101BA00004D5FFE7019801300190FFE70298006833
:101BB00080680001002804D5FFE7019801300190FA
:101BC000FFE7029800688068C000002804D5FFE79E
:101BD000019801300190FFE7FFE7019803B07047DB
:101BE00080B58AB009900020089009980068406983
:101BF0000790099800684068069009980068806816
:101C0000059009980068C068049009980068006908
:101C1000039009980068806902909DF81C00C00735
:101C2000002800F09480FFE79DF81400C00758B327
:101C3000FFE709980168012088609DF8140080077B
:101C4000002804D5FFE7099800F0F8FB1BE09DF899
:101C500014004007002805D5FFE7089840F400600D
:101C600008900FE09DF814000007002805D5FFE755
:101C7000089840F48050089003E0099800F0DAFBDF
:101C8000FFE7FFE7FFE7FFE79DF81500C00760B338
:101C9000FFE7099801684FF4807088609DF815008F
:101CA0008007002804D5FFE7099800F0CFFB1BE070
:101CB0009DF815004007002805D5FFE7089840F477
:101CC000005008900FE09DF815000007002805D58A
:101CD000FFE7089840F48040089003E0099800F07E
:101CE000B1FBFFE7FFE7FFE7FFE79DF81600C0073E
:101CF00060B3FFE7099801684FF4803088609DF871
:101D000016008007002804D5FFE7099800F0A6FB1D
:101D10001BE09DF816004007002805D5FFE708984E
:101D200040F4004008900FE09DF8160000070028DE
:101D300005D5FFE7089840F48030089003E0099843
:101D400000F088FBFFE7FFE7FFE7FFE7FFE79DF80D
:101D50001C000007002810D5FFE79DF81000C00602
:101D6000002809D5FFE7089840F40070089009980A
:101D700001681020C860FFE7FFE79DF81C004007DE
:101D800000280FD5FFE79DF810000007002808D5B0
:101D9000FFE7099801680820C860099800F0CEFAAA
:101DA000FFE7FFE79DF81C00800700280BD5FFE741
:101DB00009980068C068800720B1FFE7099800F023
:101DC000C1FAFFE7FFE79DF81C004006002810D588
:101DD000FFE79DF80C00C006002809D5FFE708982A
:101DE00040F4806008900998016810200861FFE7BE
:101DF000FFE79DF81C00800600280FD5FFE79DF83F
:101E00000C000007002808D5FFE7099801680820A2
:101E10000861099800F0BCFAFFE7FFE79DF81C0095
:101E2000C00600280BD5FFE7099800680069800705
:101E300020B1FFE7099800F0AFFAFFE7FFE79DF850
:101E40001E00800700280FD5FFE79DF81800C00688
:101E5000002808D5FFE70998016810204860099814
:101E600000F09EFAFFE7FFE79DF81E00C00778B17B
:101E7000FFE79DF818000007002808D5FFE709983C
:101E8000016808204860099800F0ECFAFFE7FFE7D6
:101E90009DF81D000006002840F18D80FFE79DF8A9
:101EA00018004007002840F18180FFE79DF81D00E1
:101EB000C00750B1FFE79DF80800C00728B1FFE751
:101EC000089840F001000890FFE79DF81D0080078A
:101ED00000280BD5FFE79DF808008007002805D5EE
:101EE000FFE7089840F002000890FFE79DF81D000A
:101EF000400700280BD5FFE79DF8080040070028A1
:101F000005D5FFE7089840F004000890FFE79DF82A
:101F10001D000007002848D5FFE79DF8080010F0D5
:101F2000700F42D0FFE7029800F070000146019167
:101F3000102814D0FFE70198202815D0FFE701985A
:101F4000302816D0FFE70198402817D0FFE7019806
:101F5000502818D0FFE70198602819D01DE0089894
:101F600040F00800089019E0089840F01000089030
:101F700014E0089840F0200008900FE0089840F026
:101F8000400008900AE0089840F08000089005E0C2
:101F9000089840F48070089000E0FFE70998016815
:101FA000886920F070008861FFE7FFE70998016801
:101FB00004204860FFE7089848B1FFE7089A0999AC
:101FC000486A104348620998FFF7C4FCFFE70AB06B
:101FD00080BD000080B584B00290029820B9FFE770
:101FE00001208DF80F00E0E0029890F8200020B961
:101FF000FFE7029800F0DEF8FFE702980168086842
:1020000040F00100086000F04BFC0190FFE70298EF
:1020100000684068C007A8B9FFE700F041FC0199DB
:10202000401A0B280DD3FFE70299486A40F40030AC
:1020300048620299052081F8200001208DF80F00E8
:10204000B3E0E4E702980168086820F00200086045
:1020500000F026FC0190FFE70298006840688007C6
:10206000002815D5FFE700F01BFC0199401A0B284A
:102070000DD3FFE70299486A40F4003048620299A4
:10208000052081F8200001208DF80F008DE0E3E7A6
:102090000298007E012807D1FFE7029801680868CE
:1020A00040F08000086006E002980168086820F0AF
:1020B00080000860FFE70298407E012807D1FFE713
:1020C00002980168086840F04000086006E0029845
:1020D0000168086820F040000860FFE70298807EF1
:1020E000012807D1FFE702980168086840F0200046
:1020F000086006E002980168086820F02000086087
:10210000FFE70298C07E012807D1FFE70298016827
:10211000086820F01000086006E00298016808686E
:1021200040F010000860FFE70298007F012807D107
:10213000FFE702980168086840F00800086006E0C0
:1021400002980168086820F008000860FFE702981C
:10215000407F012807D1FFE702980168086840F036
:102160000400086006E002980168086820F0040096
:102170000860FFE7029B19685A689868D3F80CC09A
:1021800040EA0C00D3F810C040EA0C005B69184329
:10219000013A1043C861029900204862029A012165
:1021A00082F820108DF80F00FFE79DF80F0004B0B3
:1021B00080BD000080B590B00F9000200E900D9073
:1021C0000C900B900A900F98006846F20041C4F200
:1021D0000001884249D1FFE740F27000C2F20000DE
:1021E0000168013101600068012812D1FFE7FFE7B3
:1021F0000020099043F64000C4F20200016841F05B
:1022000000710160006800F0007009900998FFE714
:10221000FFE7FFE70020089043F63000C4F2020019
:10222000016841F008010160006800F008000890B2
:102230000898FFE703200A9002210B9100210391E7
:102240000C910D9009200E9040F60040C4F202005F
:102250000AA900F02DF9039A14200490114600F009
:10226000F7FB049800F0EAFB65E00F98006846F67B
:102270000001C4F2000188425CD1FFE7FFE70020C3
:10228000079043F64000C4F20200016841F080610B
:102290000160006800F0806007900798FFE740F257
:1022A0007000C2F20000016801310160006801287D
:1022B00012D1FFE7FFE70020069043F64000C4F28A
:1022C0000200016841F000710160006800F00070D8
:1022D00006900698FFE7FFE7FFE70020059043F62A
:1022E0003000C4F20200016841F0020101600068A0
:1022F00000F0020005900598FFE74FF440500A9067
:1023000002200B90002001900C9003200D900920DA
:102310000E9040F20040C4F202000AA900F0C8F892
:10232000019A40200290114600F092FB029800F0C2
:1023300085FBFFE7FFE710B080BD000081B0009093
:1023400001B0704780B58AB009900998002102AAAF
:102350006B46FFF703FB029840F20121884213D13C
:10236000FFE79DF800109DF8010040EA012040F2CF
:102370005C11C2F2000148809DF802209DF8030024
:1023800040EA0220088000E0FFE70AB080BD0000BC
:1023900081B0009001B0704781B0009001B07047EB
:1023A00081B0009001B0704780B584B0029002986F
:1023B00090F8200001282FD1FFE70299022081F830
:1023C000200002980168086820F00100086000F011
:1023D00067FA0190FFE7029800684068C007A8B15B
:1023E000FFE700F05DFA0199401A0B280DD3FFE7D3
:1023F0000299486A40F4003048620299052081F849
:10240000200001208DF80F000FE0E4E70299002082
:1024100048628DF80F0008E00299486A40F40020F5
:10242000486201208DF80F00FFE79DF80F0004B00F
:1024300080BD000081B0009001B0704781B0009075
:1024400001B0704781B0009001B0704781B000903A
:1024500001B0704781B0009001B0704781B000902A
:1024600001B0704781B0009001B0704780B584B072
:10247000039000F015FA0290039801900198013042
:1024800048B1FFE740F20400C2F200000178019871
:1024900008440190FFE7FFE700F002FA0299401AB2
:1024A0000199884201D2FFE7F6E704B080BD000041
:1024B00090B00F900E9100200C900B900A900D9010
:1024C000FFE70D980F2800F2E881FFE70D99012042
:1024D00088400C900E9800680C9908400B900B985F
:1024E0000C99884240F0D481FFE70E98406800F0D4
:1024F0000300012807D0FFE70E98406800F00300B2
:1025000002282FD1FFE70F9880680A900D984100AC
:10251000032000FA01F10A9888430A900E98C068D7
:102520000D99490000FA01F10A9808430A900A98A7
:102530000F9988600F9840680A900D99012000FA61
:1025400001F10A9888430A900E984068C0F3001081
:102550000D9900FA01F10A9808430A900A980F9918
:102560004860FFE70E98406800F00300032818D089
:10257000FFE70F98C0680A900D984100032000FA09
:1025800001F10A9888430A900E9880680D994900D5
:1025900000FA01F10A9808430A900A980F99C86056
:1025A000FFE70E98406800F00300022826D1FFE7FD
:1025B0000F980D996FF0030202EA51010844006A76
:1025C0000A900D9800F0070081000F2000FA01F139
:1025D0000A9888430A900E9800690D9901F0070146
:1025E000890000FA01F10A9808430A900A980F99A5
:1025F0000D9B02EA530211440862FFE70F9800683E
:102600000A900D984100032000FA01F10A988843CE
:102610000A900E98406800F003000D99490000FAF6
:1026200001F10A9808430A900A980F9908600E98D9
:1026300080798007002800F02A81FFE7FFE700206B
:10264000099043F64400C4F20200016841F480415D
:102650000160006800F4804009900998FFE70D9838
:1026600020F0030043F60801C4F2010140580A902B
:102670000D9800F0030081000F2000FA01F10A9884
:1026800088430A900F980021C4F20201884203D1C6
:10269000FFE7002008907AE00F9840F20041C4F272
:1026A0000201884203D1FFE7012007906CE00F98F8
:1026B00040F60001C4F20201884203D1FFE7022084
:1026C00006905EE00F9840F60041C4F20201884295
:1026D00003D1FFE70320059050E00F9841F200017D
:1026E000C4F20201884203D1FFE70420049042E0D3
:1026F0000F9841F20041C4F20201884203D1FFE782
:102700000520039034E00F9841F60001C4F2020165
:10271000884203D1FFE70620029026E00F9841F699
:102720000041C4F20201884203D1FFE70720019073
:1027300018E00F9842F20001C4F20201884203D16E
:10274000FFE7082000900AE00F9942F20042C4F22D
:1027500002020A20914208BF09200090FFE700987A
:102760000190FFE701980290FFE702980390FFE7CE
:1027700003980490FFE704980590FFE705980690FA
:10278000FFE706980790FFE707980890FFE708988B
:10279000C0B20D9901F00301890000FA01F10A9815
:1027A00008430A900A980D9921F0030143F60802A4
:1027B000C4F20102885043F60840C4F201000068E8
:1027C0000A900B990A9888430A900E988079C0065F
:1027D000002805D5FFE70B990A9808430A90FFE700
:1027E0000A9843F60841C4F20101086043F60C4020
:1027F000C4F2010000680A900B990A9888430A9075
:102800000E9880798006002805D5FFE70B990A9875
:1028100008430A90FFE70A9843F60C41C4F201010D
:10282000086043F60440C4F2010000680A900B9966
:102830000A9888430A900E9880798007002805D569
:10284000FFE70B990A9808430A90FFE70A9843F6B6
:102850000441C4F20101086043F60040C4F20100E3
:1028600000680A900B990A9888430A900E9880791C
:10287000C00728B1FFE70B990A9808430A90FFE7C1
:102880000A9843F60041C4F201010860FFE7FFE740
:10289000FFE70D9801300D9013E610B0704700006F
:1028A00040F2BC10C2F200000068704740F2040021
:1028B000C2F20000027840F2BC11C2F200010868C6
:1028C000104408607047000080B543F60041C4F230
:1028D0000201086840F400700860086840F48060F5
:1028E0000860086840F480700860032000F0CAF8AF
:1028F0000F2000F005F800F07BF8002080BD0000FC
:1029000080B58CB00B90002004900390FFE700206E
:10291000009043F64000C4F20200016841F08001DB
:102920000160006800F0800000900098FFE706A8B2
:1029300002A900F041FA09980490049820B9FFE731
:1029400000F06AFA059004E000F066FA4000059095
:10295000FFE705984DF68361C4F21B31A0FB01012E
:102960004FF0FF3000EB9140039040F2CC00C2F2F8
:10297000000041F60041C4F20001016040F2E7317D
:10298000C16003994160002101618160816100F0B3
:1029900043FE8DF807009DF8070028BBFFE740F2D3
:1029A000CC00C2F2000000F089FE8DF807009DF80F
:1029B0000700C0B9FFE72C2000F040F80B980F2863
:1029C0000CD8FFE70B992C20002200F041F80B985F
:1029D00040F20801C2F20001086003E001208DF816
:1029E0000700FFE7FFE7FFE79DF807000CB080BD99
:1029F00082B0FFE70020019043F64400C4F20200D9
:102A0000016841F480410160006800F48040019059
:102A10000198FFE7FFE70020009043F64000C4F272
:102A20000200016841F080510160006800F08050B0
:102A300000900098FFE702B07047000080B582B0B8
:102A40008DF807009DF9070001F0F0FE02B080BD8F
:102A500080B586B08DF81700049103920020029093
:102A600001F0FCFE02909DF9170001900298049974
:102A7000039A01F0CFF90146019801F0F7FE06B084
:102A800080BD000080B582B00190019801F010FF78
:102A900002B080BD80B584B000200290FFE7002026
:102AA000019043F64000C4F20200016841F08051F9
:102AB0000160006800F0805001900198FFE740211C
:102AC000C4F20E2101200860FFF7EAFE0290FFE742
:102AD00047F20400C4F20000006800F48030B0F552
:102AE000803F0DD0FFE7FFF7DBFE0299401AB0F5FB
:102AF0007A7F04D9FFE703208DF80F0025E0E7E790
:102B00004421C4F20E2101200860FFF7C9FE0290A3
:102B1000FFE747F20400C4F20000006800F4003050
:102B2000B0F5003F0DD0FFE7FFF7BAFE0299401A5B
:102B3000B0F57A7F04D9FFE703208DF80F0004E099
:102B4000E7E700208DF80F00FFE79DF80F0004B0C5
:102B500080BD000080B584B002900191029820B938
:102B6000FFE701208DF80F0021E1019843F60041B5
:102B7000C4F20201096801F00F01884212D9FFE78F
:102B8000019943F60040C4F202000170006800F0B1
:102B90000F000199884204D0FFE701208DF80F0053
:102BA00005E1FFE702980078800700282AD5FFE7B3
:102BB000029800784007002809D5FFE743F608018E
:102BC000C4F20201086840F4E0500860FFE7029890
:102BD00000780007002809D5FFE743F60801C4F292
:102BE0000201086840F460400860FFE743F608010E
:102BF000C4F20201086820F0F000029A92681043C3
:102C00000860FFE702980078C00700286ED0FFE751
:102C100002984068012811D1FFE743F60000C4F292
:102C20000200006800F400310020B0EB514F04D1E5
:102C3000FFE701208DF80F00B9E02CE00298406812
:102C4000022805D0FFE702984068032811D1FFE76A
:102C500043F60000C4F20200006800F0007100209A
:102C6000B0EB516F04D1FFE701208DF80F009EE01B
:102C700010E043F60000C4F20200006800F0020118
:102C80000020B0EB510F04D1FFE701208DF80F00B9
:102C90008DE0FFE7FFE743F60801C4F20201086890
:102CA00020F00300029A526810430860FFF7F8FD15
:102CB0000090FFE743F60800C4F20200006800F04D
:102CC0000C0002994968B0EB810F0ED0FFE7FFF7C7
:102CD000E7FD0099401A41F28931884204D3FFE7A9
:102CE00003208DF80F0062E0E4E7FFE7019843F668
:102CF0000041C4F20201096801F00F01884212D2BA
:102D0000FFE7019943F60040C4F202000170006839
:102D100000F00F000199884204D0FFE701208DF8F0
:102D20000F0044E0FFE702980078400700280CD528
:102D3000FFE743F60801C4F20201086820F4E050FE
:102D4000029AD26810430860FFE7029800780007F3
:102D500000280DD5FFE743F60801C4F20201086818
:102D600020F46040029A126940EAC2000860FFE75E
:102D700000F076F843F60801C4F202010968C9B20E
:102D80000A0945F2CC21C0F60001895CC84040F236
:102D90000001C2F20001086040F20800C2F2000027
:102DA0000068FFF7ADFD00208DF80F00FFE79DF8EC
:102DB0000F0004B080BD000082B001900091019925
:102DC0000F20086043F60800C4F20200016801F019
:102DD0000301019A5160016801F0F001019A9160CC
:102DE000016801F4E051019AD160006800F460408C
:102DF000C0080199086143F60040C4F2020000686F
:102E000000F00F000099086002B0704740F2000027
:102E1000C2F200000068704780B5FFF7F7FF43F685
:102E20000801C4F202010968C1F3822245F2DC21E3
:102E3000C0F60001895CC84080BD000080B5FFF786
:102E4000E5FF43F60801C4F20201096889B24A0BA2
:102E500045F2DC21C0F60001895CC84080BD00005D
:102E600080B586B00020059004900390029043F650
:102E70000800C4F20200006800F00C000146019155
:102E800040B1FFE7019804280AD0FFE7019808281D
:102E90000CD04FE042F20040C0F2F40002904FE04C
:102EA00041F60030C0F2B700029049E043F604005A
:102EB000C4F20200016801F03F0105910068400280
:102EC000002813D5FFE743F60400C4F202000068AF
:102ED000C0F3881041F60031C0F2B701A0FB010138
:102EE000059A0023FDF72AFA049012E043F6040045
:102EF000C4F202000068C0F3881042F20041C0F240
:102F0000F401A0FB0101059A0023FDF717FA0490D4
:102F1000FFE743F60400C4F20200006800F4403109
:102F2000022000EBD130039004980399B0FBF1F03C
:102F3000029005E042F20040C0F2F4000290FFE788
:102F4000029806B080BD000080B586B00490049859
:102F500020B9FFE701208DF8170050E304980078AE
:102F6000C007002800F0A580FFE743F60800C4F280
:102F70000200006800F00C00042813D0FFE743F6BD
:102F80000800C4F20200006800F00C0008281ED1FE
:102F9000FFE743F60400C4F2020000684002002884
:102FA00015D5FFE743F60000C4F20200006800F404
:102FB00000310020B0EB514F08D0FFE70498406883
:102FC00020B9FFE701208DF8170018E370E0FFE754
:102FD00004984068B0F5803F09D1FFE743F600014F
:102FE000C4F20201086840F48030086020E00498D0
:102FF0004068B0F5A02F0DD1FFE743F60001C4F201
:103000000201086840F480200860086840F48030BD
:1030100008600CE043F60001C4F20201086820F4E5
:1030200080300860086820F480200860FFE7FFE730
:10303000FFE704984068E8B1FFE7FFF731FC039031
:10304000FFE743F60000C4F20200006800F400311C
:103050000020B0EB514F0CD1FFE7FFF721FC0399A3
:10306000401A652804D3FFE703208DF81700C6E255
:10307000E7E71CE0FFF714FC0390FFE743F60000CE
:10308000C4F20200006800F400310020B0EB514FA0
:103090000CD0FFE7FFF704FC0399401A652804D31E
:1030A000FFE703208DF81700A9E2E7E7FFE7FFE756
:1030B000FFE7049800788007002840F19680FFE73A
:1030C00043F60800C4F20200006810F00C0F13D0A1
:1030D000FFE743F60800C4F20200006800F00C00AD
:1030E00008282CD1FFE743F60400C4F20200006870
:1030F0004002002823D4FFE743F60000C4F2020098
:10310000006800F002010020B0EB510F09D0FFE78A
:103110000498C068012804D0FFE701208DF817004B
:103120006DE243F60001C4F20201086820F0F800E5
:10313000049A126940EAC2000860FFE754E004986C
:10314000C06870B3FFE70021C4F247210120086086
:10315000FFF7A6FB0390FFE743F60000C4F202006E
:10316000006800F002010020B0EB510F0CD1FFE726
:10317000FFF796FB0399401A032804D3FFE70320C7
:103180008DF817003BE2E7E743F60001C4F20201C5
:10319000086820F0F800049A126940EAC20008604A
:1031A00021E00021C4F2472100200860FFF778FBEE
:1031B0000390FFE743F60000C4F20200006800F04D
:1031C00002010020B0EB510F0CD0FFE7FFF768FBC6
:1031D0000399401A032804D3FFE703208DF8170052
:1031E0000DE2E7E7FFE7FFE7FFE704980078000755
:1031F00000284BD5FFE70498406918B3FFE740F675
:103200008061C4F2472101200860FFF749FB039069
:10321000FFE743F67400C4F20200006800F0020108
:103220000020B0EB510F0CD1FFE7FFF739FB0399FA
:10323000401A032804D3FFE703208DF81700DEE1CE
:10324000E7E722E040F68061C4F2472100200860F1
:10325000FFF726FB0390FFE743F67400C4F2020079
:10326000006800F002010020B0EB510F0CD0FFE726
:10327000FFF716FB0399401A032804D3FFE7032046
:103280008DF81700BBE1E7E7FFE7FFE70498007858
:103290004007002840F1CE80FFE700208DF80700AE
:1032A00043F64000C4F202000068C000002815D4B4
:1032B000FFE7FFE70020009043F64000C4F2020061
:1032C000016841F080510160006800F0805000907A
:1032D0000098FFE701208DF80700FFE747F20000A4
:1032E000C4F200000068C005002822D4FFE747F2BE
:1032F0000001C4F20001086840F480700860FFF724
:10330000CFFA0390FFE747F20000C4F20000006824
:10331000C00500280CD4FFE7FFF7C2FA0399401A52
:10332000032804D3FFE703208DF8170067E1EAE7DD
:10333000FFE7FFE704988068012809D1FFE743F61B
:103340007001C4F20201086840F0010008601FE04B
:103350000498806805280DD1FFE743F67001C4F298
:103360000201086840F004000860086840F00100AD
:1033700008600CE043F67001C4F20201086820F016
:1033800001000860086820F004000860FFE7FFE71C
:10339000FFE704988068F8B1FFE7FFF781FA039030
:1033A000FFE743F67000C4F20200006800F002017B
:1033B0000020B0EB510F0ED1FFE7FFF771FA039930
:1033C000401A41F28931884204D3FFE703208DF887
:1033D000170014E1E5E71EE0FFF762FA0390FFE74C
:1033E00043F67000C4F20200006800F00201002001
:1033F000B0EB510F0ED0FFE7FFF752FA0399401AD6
:1034000041F28931884204D3FFE703208DF8170089
:10341000F5E0E5E7FFE79DF80700012809D1FFE7A0
:1034200043F64001C4F20201086820F080500860B1
:10343000FFE7FFE704988069002800F0DC80FFE7E1
:1034400043F60800C4F20200006800F00C000828EF
:1034500000F08580FFE70498806902285CD1FFE7CF
:103460006021C4F2472100200860FFF719FA039099
:10347000FFE743F60000C4F20200006800F00071AC
:103480000020B0EB516F0CD0FFE7FFF709FA03996A
:10349000401A032804D3FFE703208DF81700AEE09D
:1034A000E7E70499C869D1F820C04B6A8A6A40EA04
:1034B0000C0040EA8310D2034FF6FF739A43A2F543
:1034C00080321043C96A40EA016043F60401C4F245
:1034D000020108606021C4F2472101200860FFF763
:1034E000DFF90390FFE743F60000C4F20200006832
:1034F00000F000710020B0EB516F0CD1FFE7FFF737
:10350000CFF90399401A032804D3FFE703208DF86D
:10351000170074E0E7E721E06021C4F247210020B2
:103520000860FFF7BDF90390FFE743F60000C4F21F
:103530000200006800F000710020B0EB516F0CD069
:10354000FFE7FFF7ADF90399401A032804D3FFE71B
:1035500003208DF8170052E0E7E7FFE74AE0049800
:103560008069012804D1FFE701208DF8170046E0AB
:1035700043F60400C4F202000068029004988069D7
:10358000012831D0FFE7029800F480000499C9694E
:10359000884229D1FFE7029800F03F000499096AA8
:1035A000884221D1FFE7029847F6C071084004998C
:1035B000496AB0EB811F17D1FFE7029800F4403051
:1035C0000499896AC9034FF6FF729143A1F58031CE
:1035D000884209D1FFE7029800F070600499C96A37
:1035E000B0EB016F04D0FFE701208DF8170006E073
:1035F000FFE7FFE7FFE700208DF81700FFE79DF8E2
:10360000170006B080BD000081B0009001B0704787
:1036100081B0009001B0704780B582B000900098F2
:1036200020B9FFE701208DF807003FE0009890F8EF
:103630003D0040B9FFE70099002081F83C00009868
:1036400000F038F8FFE70099022081F83D0000996A
:1036500051F8040B00F092FC0099012081F846001B
:10366000FFE70099012081F83E00009981F83F00B2
:10367000009981F84000009981F84100FFE7FFE7D9
:103680000099012081F84200009981F843000099D7
:1036900081F84400009981F84500FFE70099012076
:1036A00081F83D0000208DF80700FFE79DF8070036
:1036B00002B080BD81B0009001B0704783B001902E
:1036C000019890F83D00012804D0FFE701208DF813
:1036D0000B006AE00199022081F83D000198016821
:1036E000C86840F00100C860019800680021C4F279
:1036F000010188423CD0FFE701980068B0F1804F9B
:1037000036D0FFE70198006840F20041C4F20001A2
:1037100088422DD0FFE70198006840F60001C4F20E
:103720000001884224D0FFE70198006840F600417C
:10373000C4F2000188421BD0FFE70198006840F204
:103740000041C4F20101884212D0FFE701980068ED
:1037500044F20001C4F20101884209D0FFE7019858
:10376000006841F60001C4F20001884212D1FFE76F
:1037700001980068806800F0070000900098062813
:1037800007D0FFE701980168086840F00100086071
:10379000FFE706E001980168086840F00100086052
:1037A000FFE700208DF80B00FFE79DF80B0003B04A
:1037B0007047000081B0009001B0704780B584B0C0
:1037C000039003980068C06802900398006800693D
:1037D00001909DF804008007002824D5FFE79DF89C
:1037E0000800800700281DD5FFE7039801686FF0E7
:1037F0000200086103990120087703980068806936
:10380000800720B1FFE70398FFF7D4FF06E0039895
:1038100000F0E2F8039800F0E3F8FFE703990020D6
:103820000877FFE7FFE79DF804004007002825D54B
:10383000FFE79DF80800400700281ED5FFE7039822
:1038400001686FF00400086103990220087703986B
:103850000068806910F4407F04D0FFE70398FFF709
:10386000A9FF06E0039800F0B7F8039800F0B8F855
:10387000FFE7039900200877FFE7FFE79DF80400C2
:103880000007002824D5FFE79DF80800000700285E
:103890001DD5FFE7039801686FF0080008610399E0
:1038A0000420087703980068C069800720B1FFE70B
:1038B0000398FFF77FFF06E0039800F08DF8039868
:1038C00000F08EF8FFE7039900200877FFE7FFE795
:1038D0009DF80400C006002825D5FFE79DF80800E4
:1038E000C00600281ED5FFE7039801686FF010009E
:1038F000086103990820087703980068C06910F4EC
:10390000407F04D0FFE70398FFF754FF06E00398D9
:1039100000F062F8039800F063F8FFE703990020D5
:103920000877FFE7FFE79DF80400C00778B1FFE7DD
:103930009DF80800C00748B1FFE7039801686FF0E1
:1039400001000861039800F04FF8FFE7FFE79DF8DA
:1039500004000006002810D5FFE79DF808000006C7
:10396000002809D5FFE7039801686FF0800008611F
:103970000398FFF749FEFFE7FFE79DF804004006C4
:10398000002810D5FFE79DF808004006002809D55B
:10399000FFE7039801686FF040000861039800F0AA
:1039A00035F8FFE7FFE79DF804008006002810D5F2
:1039B000FFE79DF808008006002809D5FFE7039877
:1039C00001686FF0200008610398FFF721FEFFE710
:1039D000FFE704B080BD000081B0009001B07047E7
:1039E00081B0009001B0704780B582B0019001981D
:1039F000006841F60041C4F20001884203D1FFE7AC
:103A0000FEF754FFFFE702B080BD000081B00090D8
:103A100001B0704780B582B00090009820B9FFE7F0
:103A200001208DF8070040E00098806908B1FFE7A9
:103A300000E0FFE7009890F8410040B9FFE70099E7
:103A4000002081F84000009800F034F8FFE700996A
:103A5000242081F8410000980168C86820F40050D3
:103A6000C860009800F0ACFB00980168086920F479
:103A70009040086100980168486920F02A00486178
:103A800000980168C86840F40050C86000990020A0
:103A90004864009A202182F84110009A82F842106E
:103AA000009948638DF80700FFE79DF8070002B012
:103AB00080BD000080B588B007900020069005907A
:103AC0000490039002900798006847F60001C4F242
:103AD0000001884235D1FFE7FFE70020019043F65F
:103AE0004000C4F20200016841F0804101600068BA
:103AF00000F0804001900198FFE7FFE70020009070
:103B000043F63000C4F20200016841F01001016088
:103B1000006800F0100000900098FFE74FF4C070BC
:103B200002900220039000200490032005900820BA
:103B3000069041F20000C4F2020002A9FEF7B8FCB0
:103B4000FFE708B080BD000080B58AB008900791FB
:103B5000ADF81A20059300200290089890F84100D3
:103B6000202840F08180FFE7079820B1FFE7BDF8EB
:103B70001A0020B9FFE701208DF8270078E00899A6
:103B8000002048640899212081F84100FEF788FE52
:103B90000290BDF81A0008998884BDF81A000899A7
:103BA000C88408988068B0F5805F09D1FFE708985D
:103BB000006928B9FFE7002004900798039004E00B
:103BC0000798049000200390FFE7FFE70898C08C57
:103BD00078B3FFE70898029B05996A461160802137
:103BE000002200F08BFB40B1FFE70899202081F80C
:103BF000410003208DF827003AE0049858B9FFE708
:103C0000039800886FF35F2008990968486003985B
:103C10000230039008E00498007808990968486029
:103C2000049801300490FFE70899C88C0138C884D3
:103C3000CCE70898029B05996A4611604021002252
:103C400000F05CFB40B1FFE70899202081F84100BB
:103C500003208DF827000BE00899202081F841000F
:103C600000208DF8270003E002208DF82700FFE7F1
:103C70009DF827000AB080BDFFE7FEE780B582B05F
:103C800040F27C00C2F20000019046F20041C4F212
:103C9000000101600521416000218160C1604FF495
:103CA000003202614FF480024261017601224276C5
:103CB0008176C27601774177FEF78CF918B1FFE77C
:103CC000FDF79CFCFFE702B080BD000080B582B02C
:103CD00040F2A400C2F20000009046F60001C4F2D7
:103CE0000001016005214160002101918160C160F6
:103CF0004FF4003202614FF4800242610176417656
:103D00008176C17601774177FEF764F918B1FFE754
:103D1000FDF774FCFFE702B080BD000085B0FFE74F
:103D20000020049043F63000C4F20200016841F024
:103D300001010160006800F0010004900498FFE7B1
:103D4000FFE70020039043F63000C4F20200016850
:103D500041F008010160006800F00800039003983A
:103D6000FFE7FFE70020029043F63000C4F20200B4
:103D7000016841F080010160006800F0800002905D
:103D80000298FFE7FFE70020019043F63000C4F2FD
:103D90000200016841F010010160006800F01000AD
:103DA00001900198FFE7FFE70020009043F6300004
:103DB000C4F20200016841F002010160006800F0F5
:103DC000020000900098FFE705B0704780B582B010
:103DD00040F21410C2F20000019047F60001C4F254
:103DE000000101604FF4E131416000218160C16058
:103DF00001610C2242618161C161FFF70BFE18B1C4
:103E0000FFE7FDF7FBFBFFE702B080BDFFE7FEE742
:103E1000FFE7FEE788B0079006910592079800F04B
:103E2000070004900498C0F10700052803D3FFE7BA
:103E30000420019004E00498C0F107000190FFE71E
:103E40000198039004980430062803D8FFE7002067
:103E5000009003E0049803380090FFE70098029078
:103E600006980399012202FA01F101390840029BE8
:103E7000984005999A40013A1140084308B07047AC
:103E800070470000704700007047000080B594B094
:103E900008A83021FCF7FBFA002007900690059057
:103EA00004900390FFE70020029043F64000C4F224
:103EB0000200016841F080510160006800F080500C
:103EC00002900298FFE7FFE70020019047F2000010
:103ED000C4F20000016841F440410160006800F450
:103EE000404001900198FFE7012008904FF4803096
:103EF000099002200E904FF480010F91062110913D
:103F0000B421119112900420139008A8FFF71CF817
:103F100018B1FFE7FDF772FBFFE7FEF7BBFD18B135
:103F2000FFE7FDF76BFBFFE70F20039002200490F3
:103F3000002005904FF4A05006904FF48050079059
:103F400003A80521FEF706FE18B1FFE7FDF756FBB3
:103F5000FFE714B080BD00004EF68851CEF200019C
:103F6000086840F4700008607047000080B540F2B7
:103F7000CC00C2F20000FFF721FC80BD83B00290AC
:103F8000019102980068009002980021C4F201019A
:103F9000884225D0FFE70298B0F1804F20D0FFE79C
:103FA000029840F20041C4F20001884218D0FFE7B5
:103FB000029840F60001C4F20001884210D0FFE7E9
:103FC000029840F60041C4F20001884208D0FFE7A1
:103FD000029840F20041C4F2010188420AD1FFE791
:103FE000009820F070000090019841680098084304
:103FF0000090FFE702980021C4F20101884255D0E9
:10400000FFE70298B0F1804F50D0FFE7029840F2EE
:104010000041C4F20001884248D0FFE7029840F610
:104020000001C4F20001884240D0FFE7029840F648
:104030000041C4F20001884238D0FFE7029840F204
:104040000041C4F20101884230D0FFE7029844F2F7
:104050000001C4F20101884228D0FFE7029844F22F
:104060000041C4F20101884220D0FFE7029844F6E3
:104070000001C4F20101884218D0FFE7029841F61E
:104080000001C4F20001884210D0FFE7029841F617
:104090000041C4F20001884208D0FFE7029842F2D2
:1040A0000001C4F2000188420AD1FFE7009820F421
:1040B000407000900198C168009808430090FFE7A5
:1040C000009820F080000199496908430090009809
:1040D00002990860019880680299C8620198006896
:1040E0000299886202980021C4F20101884208D036
:1040F000FFE7029840F20041C4F20101884205D175
:10410000FFE70198006902990863FFE7029901201F
:10411000486102980069C00730B1FFE70299086959
:1041200020F001000861FFE703B0704784B00390FE
:10413000FFE7FFE70398006850E8030F20F4907052
:104140000290FFE702990398026842E803100028F2
:10415000F0D1FFE7FFE7FFE7FFE70398006850E8CB
:10416000050F20F001000190FFE701990398026814
:1041700042E805100028F0D1FFE7FFE70398006B45
:10418000012814D1FFE7FFE7FFE70398006850E834
:10419000030F20F010000090FFE7009903980268D9
:1041A00042E803100028F0D1FFE7FFE7FFE703999B
:1041B000202081F8420003990020086304B0704772
:1041C00080B586B0059005980068006920F44050DD
:1041D000059A1168D26810430861059988680B69CF
:1041E0004A69C96918431043084304900598006858
:1041F000C06849F20C61884304990843059909682D
:10420000C86005980068406920F44070059A1168FC
:104210009269104348610598006841F20001C4F2B8
:104220000101884209D0FFE70598006841F200418A
:10423000C4F20101884204D1FFE7FEF7FFFD0390BD
:1042400003E0FEF7E9FD0390FFE70598C069B0F5CC
:10425000004F29D1FFE703981921A0FB0101059A1E
:104260001368029353685A00DB0FFCF767F8029952
:10427000864648F21F53C5F2EB13AEFB03204209FA
:1042800010014FF0640C02FB1CEC322202EBCC025A
:10429000A2FB0332F82303EA521300EB4300C2F3FC
:1042A00042121044886026E003981921A0FB010106
:1042B000059A1368019353689A009B0FFCF73EF828
:1042C0000199844648F21F52C5F2EB12ACFB023052
:1042D0004309642003FB10CC322000EB0C10A0FB40
:1042E0000202F02000EA521000EB0310C2F3431266
:1042F00010448860FFE706B080BD000080B586B03E
:10430000DDF820C0049003918DF80B200193FFE7A6
:1043100004980068006803990840401AB0FA80F0D9
:1043200040099DF80B1088424DD1FFE708980130F5
:10433000002847D0FFE7FEF7B3FA0199401A089921
:10434000884203D8FFE7089820B9FFE703208DF8DB
:1043500017003CE004980068C0684007002830D58A
:10436000FFE7039880282CD0FFE70398402828D047
:10437000FFE704980068006800F008010120B0EB36
:10438000D10F1DD1FFE7FFE70020009004980068DF
:104390000068009004980068406800900098FFE76B
:1043A0000498FFF7C3FE049908204864FFE70499C6
:1043B000002081F84000FFE701208DF8170006E09B
:1043C000FFE7FFE7A4E700208DF81700FFE79DF85F
:1043D000170006B080BD0000FFE7FEE780B500F0E3
:1043E00085FA80BD83B080B59DB0219320921F9146
:1043F0001C901FA802901C9902980190019A03A892
:104400000090FCF713F80098FCF722F8009982B2AC
:1044100040F21410C2F200004FF6FF73FFF794FB56
:104420001DB0BDE8804003B07047000080B58AB081
:1044300000210091019102910391049105910120C5
:1044400007900691089040F27C00C2F20000694695
:10445000FDF7AEF918B1FFE7FDF7D0F8FFE740F23E
:104460007C00C2F20000FDF79FFF18B1FFE7FDF7E7
:10447000C5F8FFE740F27C00C2F200000221FDF720
:10448000C1F818B1FFE7FDF7B9F8FFE70AB080BD42
:1044900080B586B005908DED040ACDED030A8DED53
:1044A000021A0598019000F01DF8019904984860DF
:1044B000039888600298C86006B080BD84B00390FD
:1044C00002918DF8072003990091029808609DF8E9
:1044D0000700C00720B1FFE7009900208861FFE7CF
:1044E00004B0704781B00090009900200861086016
:1044F000C862086348608860C860486108624862B2
:104500008861886201B0704784B00390029103997A
:1045100000910868029A801A48614A6988691044C3
:1045200088614A69486A801A0862486948628869ED
:10453000C969884204DDFFE70099C8698861FFE71F
:1045400000998869C9694942884205DAFFE70099FC
:10455000C86940428861FFE7009991ED011A91ED29
:10456000022A91ED030A91ED053AB8EEC33A91EDB6
:10457000064AB8EEC44A22EE042A21EE031A31EEAE
:10458000021A91ED082AB8EEC22A20EE020A30EE95
:10459000010ABDEEC00A8DED010A0198096B88423F
:1045A00004DDFFE70098006B01900AE00099019894
:1045B000C96A884204DAFFE70098C06A0190FFE701
:1045C000FFE7009901980861019804B07047000066
:1045D00083B002900191009202990198C8620098FC
:1045E000086303B070470000B0B588B00E9CDDF8DA
:1045F00034E0DDF830C00794CDF818E0CDF814C0F1
:104600000493039202910190019800909DED020A9B
:10461000DDED030A9DED041A0599069A00F006F8EF
:1046200000980799C16108B0B0BD000080B588B09E
:1046300007908DED060ACDED050A8DED041A039164
:104640000292079801901921C1619DED060ADDEDE6
:10465000050A9DED041AFFF71BFF01980399029AC2
:10466000FFF7B6FF019808B080BD000080B58AB0A2
:104670000990ADF82210099800909DF82310036965
:10468000027D02F003021A4402F8011CBDF8221058
:104690000269037D03F00303D154007FC00738B3E0
:1046A000FFE700990820059000200290097DB0EBFB
:1046B000910F04D1FFE74FF40070019003E040F246
:1046C000FF100190FFE70020039004908DF8180080
:1046D000FFE700988069FDF74BFA08B9FFE7F8E7B4
:1046E00000980269806901A907ABFCF7B5FFFFE7F5
:1046F0000AB080BD81B0009001B0704780B585B030
:1047000084460798CDF810C08DF80F1002920193DF
:104710008DF8030004999DF80F00087502988861D0
:10472000019808619DF8030000F00100087705B0CA
:1047300080BD000081B0009000980121017100212E
:10474000C4F2042181604CF6CD41C4F2B311C160C2
:104750000021017701B0704780B582B001908DEDE6
:10476000000A01999DED000A91ED022A91ED091AC6
:1047700020EE020AB8EEC11A20EE010A81ED0A0A03
:1047800001F12C0091ED0A0ABDEEC00A10EE101ADC
:104790000022FFF793FE02B080BD000080B584B018
:1047A000039003980190FFF7A5FF019830F92C1BA7
:1047B000FFF7AAFE01460198ADF80A10BDF90A10EC
:1047C000FFF754FF04B080BDB0B58CB00B900B98D0
:1047D0000490FFF7AFFF0498012141622C300021C3
:1047E000C4F2A00105914FF080410691002107918C
:1047F0004EF67841CFF6FF71089141F28831099168
:104800004FF4FA610A910599069A079BDDF820C0DA
:10481000099C0A9DEE46CEF80850CEF80440CEF82A
:1048200000C0FFF7E1FE04980CB0B0BD81B08DF878
:1048300003009DF9030000280ED4FFE79DF9031043
:1048400001F01F02012090404A094EF20011CEF201
:10485000000141F82200FFE701B070474EF60C500E
:10486000CEF200000068C0F30220704782B08DF8DD
:10487000070000919DF9070000280AD4FFE700987F
:1048800000019DF907104EF20042CEF2000288545A
:104890000BE0009800019DF8071001F00F014EF6A3
:1048A0001452CEF200028854FFE702B070470000B5
:1048B00083B00290029800F0070000904EF60C5171
:1048C000CEF200010868019001984FF6FF021040F7
:1048D00001900198009A40EA02200022C0F2FA52A8
:1048E000104301900198086003B0704780B540F212
:1048F0005C10C2F20000FFF767FF80BD80B582B098
:1049000000200190FDF7E0FFFFF7C0FAFFF706FA7D
:10491000FFF7B4F9FFF7DAF9FFF758FA00F002F8F9
:10492000FFE7FEE780B582B0FFF780FD6846012112
:10493000016040F25C10C2F2000040F27C02C2F260
:10494000000240F27403C2F20003FFF7D7FEFFE754
:1049500040F25C10C2F200000190B0F9001045F284
:10496000E420C0F60000FFF73DFD019890ED080A35
:10497000FFF7F2FE0198FFF711FF0A20FDF776FD21
:10498000E6E75FEA400C08BF91F0000F4FEA8C2386
:104990004FEAC12243EA51514FEA1C5018BF00F5BB
:1049A000F0404FEA300018BF41F000415FEA6C5C14
:1049B00000F02980BCF1FF3F08BF40F08040704705
:1049C000130C06BF12044FF0100C4FF0000C130E26
:1049D00004BF12020CF1080C130F04BF12010CF1FA
:1049E000040C930F04BF92000CF1020CD30F04BF10
:1049F00052000CF1010C11464FF00002A0F11F0013
:104A0000A0EB0C00704711F0004F08BF704731F069
:104A100000413FF4D5AF0B0C06BF09044FF0100C5A
:104A20004FF0000C0B0E04BF09020CF1080C0B0F29
:104A300004BF09010CF1040C8B0F04BF89000CF1B9
:104A4000020CCB0F04BF49000CF1010CCCF1200388
:104A500022FA03F341EA030102FA0CF2A0EB0C0084
:104A600000F101007047000023F07F4720F07F4CE9
:104A700080EA030000F00040ACEB070303F57C5331
:104A800003F1FF032DE9804909B44FEA144324EAF6
:104A900003484FEA154B25EA0B4E0FF2042606EBAE
:104AA00013273E7803FB0667C7F5000707FB06F6EA
:104AB0004FEAD64606F102064FEA543707FB066C6A
:104AC000CCF1005C4FEA1C472CEA074C0CFB06F5C6
:104AD00007FB06F404EB15464FEA961649085FEA11
:104AE000320234BF00204FF000404FEAD13706FBBE
:104AF00007FC4FEA1C4C0CFB0BF7D21B03FB0CF71B
:104B000061EB07010CFB0EF7B0EB074072EB1742AD
:104B10000CFB08F734BFA2EB0742B2EB074261EB94
:104B200017414FEA0C444FEA910706FB07FC4FEA96
:104B30001C4C0CFB0BF7B0EBC74072EB573203FB7E
:104B40000CF734BFA2EBC742B2EBC74261EB57315F
:104B50000CFB0EF7B0EBC70072EB57720CFB08F7BB
:104B600034BFA2EBC702B2EBC70261EB57714FEA49
:104B7000816141EA92114FEA826242EA90124FEA61
:104B8000806004EBCC04039F4FEAD13706FB07FC9F
:104B90004FEA1C4C0CFB0BF7D21B03FB0CF761EB31
:104BA00007010CFB0EF7B0EB074072EB17420CFB52
:104BB00008F734BFA2EB0742B2EB074261EB1741A3
:104BC0004FEA8C5504EB9C244FEA910706FB07FC47
:104BD0004FEA1C4C0CFB0BF7B0EBC74072EB5732A3
:104BE00003FB0CF734BFA2EBC742B2EBC74261EB49
:104BF00057310CFB0EF7B0EBC70072EB57720CFB92
:104C000008F734BFA2EBC702B2EBC70261EB5771E2
:104C10004FEA816141EA92114FEA826242EA9012C0
:104C20004FEA806015EB4C2544F100044FEAD13780
:104C300006FB07FC4FEA1C4C0CFB0BF7D21B03FBDB
:104C40000CF761EB07010CFB0EF7B0EB074072EBC2
:104C500017420CFB08F734BFA2EB0742B2EB074246
:104C600061EB17414FEA813141EA92414FEA8232CA
:104C700042EA90424FEA80304FEA0C7615EB1C1561
:104C800044F1000448EA03434EEA0B484FF0000E9B
:104C9000B2EB080C71EB030724BF624639464EEBBA
:104CA0000E0E4FF0000B0018524149414BEB0B0B1D
:104CB000B2EB080C71EB03077BF1000B24BF6246DB
:104CC00039464EEB0E0E4FF0000B00185241494191
:104CD0004BEB0B0BB2EB080C71EB03077BF1000BFA
:104CE00024BF624639464EEB0E0E51EA020718BF4A
:104CF00046F0010616EB0E7655F1000254F1000164
:104D000003D5BDE88901BDE80088BDE88901BDE89B
:104D10000048B619524141EB0101A3F1010370476C
:104D200080807F7E7D7C7B7A7978777676757473E8
:104D3000727171706F6E6E6D6C6C6B6A6A696868A7
:104D4000676666656464636362616160605F5F5E3D
:104D50005E5D5D5C5C5B5B5A5A59595858575756B3
:104D60005655555554545353525252515150505018
:104D70004F4F4F4E4E4D4D4D4C4C4C4B4B4B4A4A6A
:104D80004A494949484848474747474646464545AE
:104D900045444444444343434342424242414141E7
:104DA0009C46002B30D477002BD04FEA37071CB538
:104DB00003B44FF010004FF01001BAF1000F06D00D
:104DC000BCF1000FDCBF40F0080040F008014FF0DC
:104DD00000000FBCBDE810400BF1010BBBF1010F4F
:104DE00008BF5FEA170722BF12F1010211F10101AA
:104DF0004FF0004143F1000300F0004043EA00009F
:104E00007047F9D35708D0E746EA06464FEA1646F8
:104E100013F1400F1FDD13F1200FDFBF16430A46C9
:104E2000002120335B42BED0C3F1200746EA06468C
:104E30004FEA164602FA07F746EA070622FA03F295
:104E4000C3F1200701FA07F742EA070221FA03F14A
:104E50004FF00003A7E746EA020646EA06464FEA95
:104E6000164646EA0106BCBF46EA0646360C4FF037
:104E700000034FF000024FF0000194E72DE9804C51
:104E800070B49A46934691E8380007C831EA400C5E
:104E900048BF34EA430C03D5FFF7E6FDFFF780FF78
:104EA000F0BCBDE8008C2DE9804C70B49A46934666
:104EB00091E8380007C810F0804F08BF13F0804F0A
:104EC00003D100F005F8FFF76BFFF0BCBDE8008CE4
:104ED00020F07F4723F07F4C80EA030000F0004081
:104EE00007EB0C03A3F57C53A3F1FE0392F0000F34
:104EF00000F0B38095F0000F00F077802DE90149B4
:104F00004FEA114021EA00484FEA144624EA0647D6
:104F100000FB06FC08FB06F607FB08F818EB064842
:104F20004CEB164C00FB07F718EB07484CEB17400F
:104F30004FEA124B22EA0B4E4FEA154625EA064786
:104F40000BFB06FC0EFB06F607FB0EFE1EEB064EE9
:104F50004CEB164C0BFB07F71EEB074E4CEB174BBD
:104F600018EB0B0840F1000018EB0E0B58EB000893
:104F700040F100008F1A4FF000014FF000063CBFD7
:104F8000C943661B14BFB5EB040C00213CBFC943E9
:104F9000F61B4FEA174427EA04454FEA1C472CEA60
:104FA000074C04FB076205FB07F70CFB05F616EB45
:104FB000074642EB174204FB0CFC16EB0C4642EB97
:104FC0001C421BEB060658EB020241414EEA8E0ED4
:104FD00046EA9E0601D5BDE80189B619524141EB6A
:104FE0000101A3F10103BDE801894FEA144524EA58
:104FF00005464FEA114721EA074C05FB07F406FB7B
:1050000007F70CFB06F111EB074144EB174405FBD6
:105010000CFC11EB0C4144EB1C444FEA124722EA12
:10502000074C05FB07F206FB07F70CFB06F616EB31
:10503000074642EB174205FB0CFC16EB0C4642EB15
:105040001C456A1854F1000148BF7047B619524117
:1050500041EB0101A3F10103704795F0000F37D038
:105060004FEA114221EA02464FEA144724EA074C6C
:1050700002FB07F106FB07F70CFB06F414EB0744F1
:1050800041EB174102FB0CFC14EB0C4441EB1C41BF
:105090004FEA154725EA074C02FB07F506FB07F721
:1050A0000CFB06F616EB074645EB174502FB0CFC1E
:1050B00016EB0C4645EB1C42121951F1000148BF9A
:1050C0007047B619524141EB0101A3F1010370474A
:1050D0004FEA144524EA05464FEA114721EA074CF6
:1050E00005FB07F106FB07F70CFB06F212EB074284
:1050F00041EB174105FB0CFC12EB0C4251EB1C4140
:105100004FF0000648BF7047921841EB0101A3F130
:105110000103704703B401984100009850EAC12090
:1051200018BF04204A0D18BF40F0010040F2FF7282
:10513000B2EB515F08BF40F00200012808BF052014
:1051400002B0704730380A2801D201207047002091
:105150007047000010B500290AD00878002807D051
:1051600005487844FCF7F0F9002801D0002010BD74
:105170000248784410BD0000A60100009E01000016
:1051800010B500290AD00878002807D005487844CF
:10519000FCF7DAF9002801D0002010BD024878445D
:1051A00010BD0000960100008E010000F1EE100A13
:1051B0004FF6FF71C0F2C03120EA010040F04070AC
:1051C000E1EE100A7047FBF7C7BDFBF7FBBE00001E
:1051D0000000000000000000303132333435363733
:1051E000383941424344454640305800303132332B
:1051F000343536373839616263646566403078002B
:10520000040000080000000000000002000100008F
:105210001030313233343536373839616263646582
:1052200066787000303132333435363738394142A0
:10523000434445465850000002400000000000A0D2
:105240000000000005400000000000C80000000051
:105250000C4000000000409C0000000019400000CD
:105260000020BCBE0000000034400000BFC91B8EFF
:1052700000000004B5400000504BCFD06607E2CFDD
:10528000010000006C4100003E8251AADFEEA7340D
:1052900001000000D9420000DCB5A0E23A301F97BF
:1052A000FFFFFFFFB4450000FD25A0C8E9A3C14FE3
:1052B000FFFFFFFFFF3F0000000000800000000034
:1052C000FF3F000000000080000000000000000020
:1052D00000000000010203040607080900000000A6
:1052E0000102030425640A0038540008000000206D
:1052F00010000000E80100084854000810000020D9
:10530000B0450000040200081C000000430000003B
:10531000F8FFFFFF0C0000000E0000000F0000006F
:105320002E0000001001000043000000F8FFFFFF06
:1053300000404040404040404040414141414140A8
:10534000404040404040404040404040404040405D
:1053500040050202020202020202020202020202EC
:1053600002202020202020202020200202020202F1
:105370000202909090909090101010101010101049
:105380001010101010101010101010100202020255
:105390000202888888888888080808080808080899
:1053A0000808080808080808080808080202020295
:1053B00040000000000000000000000000000000AD
:1053C00000000000000000000000000000000000DD
:1053D00000000000000000000000000000000000CD
:1053E00000000000000000000000000000000000BD
:1053F00000000000000000000000000000000000AD
:10540000000000000000000000000000000000009C
:10541000000000000000000000000000000000008C
:10542000000000000000000000000000000000007C
:1054300000000000A9EFFFFF0024F40001000000BD
:08544000100000000000000054
:04000005080001AD41
:00000001FF
