:020000040800F2
:10000000384500205D020008852D0008512C0008AD
:10001000812D00086D060008C930000800000000AE
:100020000000000000000000000000000D2E00088D
:100030009106000800000000092E0008112E00089B
:1000400077020008770200087702000877020008AC
:10005000770200087702000877020008770200089C
:10006000770200087702000877020008770200088C
:10007000770200087702000877020008770200087C
:10008000770200087702000877020008770200086C
:10009000710600087702000877020008770200085E
:1000A000770200087702000877020008770200084C
:1000B000770200087702000877020008770200083C
:1000C000770200087702000877020008770200082C
:1000D000770200087702000877020008770200081C
:1000E000770200087702000877020008770200080C
:1000F000FD2E00087702000877020008770200084A
:1001000077020008770200087702000877020008EB
:1001100077020008770200087702000877020008DB
:1001200077020008770200087702000877020008CB
:1001300077020008770200087702000877020008BB
:10014000810600087702000877020008770200089D
:10015000770200087702000877020008770200089B
:10016000770200087702000877020008770200088B
:1001700077020008770200087702000800000000FC
:10018000770200087702000877020008770200086B
:10019000770200087702000877020008770200085B
:1001A00000000000000000007702000800F002F8E4
:1001B00000F042F80AA090E8000C82448344AAF1BF
:1001C0000107DA4501D100F037F8AFF2090EBAE8BD
:1001D0000F0013F0010F18BFFB1A43F0010318477B
:1001E000F031000010320000103A24BF78C878C106
:1001F000FAD8520724BF30C830C144BF04680C602D
:10020000704700000023002400250026103A28BF74
:1002100078C1FBD8520728BF30C148BF0B60704778
:100220001FB503F0C3F80FBC00F016F80FB400F0D0
:10023000D7F81FBD10B510BD00F0E4F81146FFF768
:10024000EFFF03F079F800F002F903B4FFF7F2FFD3
:1002500003BC00F0BBF9000000F013B90948804767
:1002600009480047FEE7FEE7FEE7FEE7FEE7FEE798
:10027000FEE7FEE7FEE7FEE704480549054A064BB0
:1002800070470000E92E0008AD0100083801002089
:1002900038450020384100203841002053EA020C44
:1002A00000F069802DE9F04B4FF00006002B1FBFD6
:1002B000B3FA83F503FA05F424FA05F65E4012BF9B
:1002C0001643B2FA82F502FA05F4C5F120051EBF05
:1002D00022FA05FC44EA0C04203556EA044C4FEAA5
:1002E000144418BF641C4FF000084FF000099042FE
:1002F00071EB030C39D3002919BFB1FA81F701FA68
:1003000007F6B0FA80F700FA07F6C7F120071EBF1C
:1003100020FA07FC46EA0C062037B6FBF4FCA7EBF4
:100320000507103F07F01F0BCBF120062CFA06F64D
:100330000CFA0BFB44BFB3460026202FA4BF5E4639
:100340004FF0000B5BEA060C08BF4FF0010B19EBF6
:100350000B0948EB0608ABFB027C06FB02CC0BFB4F
:1003600003CCC01B71EB0C01C1E70B4602464146B2
:100370004846BDE8F08B13B54FF000004FF0000188
:10038000AFF30080BDE81C4070474FF0000200B59D
:10039000134694469646203922BFA0E80C50A0E8A8
:1003A0000C50B1F12001BFF4F7AF090728BFA0E856
:1003B0000C5048BF0CC05DF804EB890028BF40F822
:1003C000042B08BF704748BF20F8022B11F0804F64
:1003D00018BF00F8012B7047704770477047000046
:1003E00070B5064C7C44064D7D4403E020682044F3
:1003F0008047241DAC42F9D170BD000008300000D8
:1004000008300000754600F0CFF8AE46050069469A
:10041000534620F00700854618B020B5FFF72CFFA3
:10042000BDE820404FF000064FF000074FF00008F5
:100430004FF0000BAC46ACE8C009ACE8C009ACE832
:10044000C009ACE8C00921F007018D46704710B51E
:100450000446AFF300802046BDE81040FFF7F5BE2C
:100460000246C91C21F00301D2E900031B1A8B428A
:1004700001D2002070470144C91D21F0070111601D
:1004800070472DE9F34F83B000274FF48074BA46CC
:1004900003A821468DF80070FFF7E2FF5FEA00082D
:1004A00001D100F08CF82146404600F070F80600BB
:1004B00009D04FF0010B4546C14616F8014B8FB1EC
:1004C0005C2C16D01CE008F108004146C8F800007A
:1004D0000020C8F80400D8F800402070012005B0C2
:1004E000BDE8F08F222C01D0272C0FD12746BA4629
:1004F0002CE03078222807D05C2805D0272803D0AC
:10050000BC4203D1002721E0761C04464CB12FB930
:10051000202C06D0A4F10900042802D905F8014BCB
:10052000CBE74D4502D1BAF1000F0FD052464946F4
:10053000002005F8010B6846AFF300809DF800002D
:1005400070B14D464FF0000A0BF1010B002CB4D1F5
:100550004FEA8B0103A8FFF783FF040002D004E0F9
:10056000A946EFE7002000F02AF800204246C4F830
:10057000008005E012F8011B11B9401C44F820204E
:10058000AA42F7D3002144F820102146A7E71CB562
:100590000446CDE9000169461520ABBE08B1002034
:1005A0001CBD20461CBD0000004870471000002004
:1005B00070477047002801D000F008B8704710B5A8
:1005C00000F024F8BDE81040FFF7F4BF01491820FF
:1005D000ABBEFEE726000200704770B505460C462C
:1005E0000A2000E06D1C00F039F835B128780028A9
:1005F000F8D102E0641C00F031F814B12078002832
:10060000F8D1BDE870400A2000F028B810B50128E4
:1006100005D0002103A0FFF7E0FF012010BD09A1D4
:10062000F8E7000053494752544D454D3A204F7565
:1006300074206F662068656170206D656D6F7279DA
:10064000000000003A2048656170206D656D6F7292
:100650007920636F727275707465640008B56946BD
:100660008DF800000320ABBE08BD0000FFE7FEE7E9
:1006700080B540F27C00C2F2000000F02FFB80BD8C
:1006800080B540F2A400C2F2000000F027FB80BD5C
:100690007047000072B6FFE7FEE7000086B00A462A
:1006A000034604900391049890F820008DF80B0005
:1006B0009DF80B0001280192009305D0FFE79DF8FB
:1006C0000B0002280AD1FFE70398049909684A69D8
:1006D0001043486100208DF8170008E00498416A33
:1006E00041F48021416201208DF81700FFE79DF859
:1006F000170006B070470000B0B58CB09C46964617
:100700000C4605460A900991089207930A9890F8BA
:1007100020008DF817000A980068806804900998F6
:1007200080680028CDF80CC0CDF808E00194009551
:1007300001D1FFE700E0FFE79DF81700012806D090
:10074000FFE79DF81700022840F08280FFE79DF840
:100750001300400700280CD4FFE79DF813000007A2
:10076000002806D4FFE79DF81300C006002866D5D0
:10077000FFE70498C0F3016006900698012101FA92
:1007800000F0079908600998806800280DD1FFE7FC
:1007900009980168C06840EA41500A990968069AB8
:1007A00001EB0211C1F880010EE0099841688268EE
:1007B000C06842EAC10108430A990968069A01EB38
:1007C0000211C1F88001FFE7099800690A990968D8
:1007D000069A01EB0211C1F884010998007D0128F5
:1007E0000CD1FFE70A980068069900EB0110D0F8D9
:1007F000841141F48071C0F88411FFE708984068C3
:100800000A990968069A01EB0211C1F88C0108984F
:1008100000680A990968069A01EB0211C1F888017B
:100820000A980068069900EB0110D0F8801141F099
:100830000101C0F8801100208DF82F0011E00A9806
:10084000416A41F40011416201208DF82F0008E057
:100850000A98416A41F48021416201208DF82F00FD
:10086000FFE79DF82F000CB0B0BD000088B00A462D
:10087000034606900591069800680390069890F844
:1008800020008DF80B009DF80B00012801920093C9
:1008900006D0FFE79DF80B00022840F0B880FFE784
:1008A00046F20040C4F2000003900398D0F8001212
:1008B00041F00101C0F800120398D0F8001221F4B1
:1008C0007C51C0F800120598406A0399D1F80022C3
:1008D00042EA0020C1F800020598406900F01F00BC
:1008E000012101FA00F0049004980399D1F81C2228
:1008F00022EA0000C1F81C020598C06900281FD137
:10090000FFE704980399D1F80C2222EA0000C1F80D
:100910000C0205988188C268406941EA0241039A45
:1009200002EBC000C0F84012059801888268406957
:1009300041EA0241039A02EBC000C0F84412FFE70B
:100940000598C06901281ED1FFE704980399D1F8E2
:100950000C221043C1F80C02059881880268406996
:1009600041EA0241039A02EBC000C0F84012059828
:1009700081898268406941EA0241039A02EBC00022
:10098000C0F84412FFE705988069002809D1FFE705
:1009900004980399D1F8042222EA0000C1F8040265
:1009A00007E004980399D1F804221043C1F8040227
:1009B000FFE705980069002809D1FFE7049803992B
:1009C000D1F8142222EA0000C1F8140207E00498CA
:1009D0000399D1F814221043C1F81402FFE70598D7
:1009E000006A012808D1FFE704980399D1F81C2276
:1009F0001043C1F81C02FFE70398D0F8001221F061
:100A00000101C0F8001200208DF81F0008E00698D0
:100A1000416A41F48021416201208DF81F00FFE707
:100A20009DF81F0008B0704782B001460190009108
:100A300002B07047B0B58AB09C4696460C46054653
:100A40000890079106920593089890F820008DF879
:100A500013009DF813000128CDF80CC0CDF808E074
:100A60000194009506D0FFE79DF81300022840F09E
:100A7000ED80FFE70798002811D1FFE7089800688C
:100A8000C06810F0030F09D1FFE70898416A41F4EC
:100A90000011416201208DF82700E0E010E0089885
:100AA0000068006910F0030F09D1FFE70898416A58
:100AB00041F40011416201208DF82700CFE0FFE7EB
:100AC00008980068079900EB0110D0F8B00100F019
:100AD0000400069988600698806800280BD1FFE71B
:100AE00008980068079900EB0110D0F8B001400D9C
:100AF000069908600AE008980068079900EB011061
:100B0000D0F8B001C00806994860FFE7089800686F
:100B1000079900EB0110D0F8B00100F0020006992F
:100B2000C86008980068079900EB0110D0F8B4017C
:100B300000F00F00082804D3FFE7069808210161A0
:100B40000BE008980068079900EB0110D0F8B40199
:100B500000F00F0006990861FFE708980068079900
:100B600000EB0110D0F8B401C0F3072006998861AA
:100B700008980068079900EB0110D0F8B401000C48
:100B80000699486108980068079900EB0110D0F8B1
:100B9000B8010599087008980068079900EB0110E2
:100BA000D0F8B801000A05994870089800680799BC
:100BB00000EB0110D0F8B801000C05998870089876
:100BC0000068079900EB0110D0F8B801000E0599F4
:100BD000C87008980068079900EB0110D0F8BC01B4
:100BE0000599087108980068079900EB0110D0F882
:100BF000BC01000A0599487108980068079900EB44
:100C00000110D0F8BC01000C0599887108980068A3
:100C1000079900EB0110D0F8BC01000E0599C871CE
:100C20000798002807D1FFE708980068C16841F0DD
:100C30002001C16006E008980068016941F02001C8
:100C40000161FFE700208DF8270008E00898416A5D
:100C500041F48021416201208DF82700FFE79DF8D3
:100C600027000AB0B0BD000084B001460390002008
:100C70000290039890F820008DF807009DF8070077
:100C80000128009105D0FFE79DF80700022822D136
:100C9000FFE703980068806810F0806F04D0FFE7DA
:100CA000029801300290FFE703980068806810F016
:100CB000006F04D0FFE7029801300290FFE703982D
:100CC0000068806810F0805F04D0FFE70298013070
:100CD0000290FFE7FFE7029804B0704780B58AB042
:100CE0000146099000200890099800684069079023
:100CF0000998006840680690099800688068059027
:100D000009980068C0680490099800680069039019
:100D100009980068806902909DF81C00C0070028AF
:100D2000019100F09780FFE79DF81400C0070028AC
:100D30002BD0FFE709980068012181609DF814001D
:100D40008007002804D5FFE7099800F025FC1BE088
:100D50009DF814004007002805D5FFE7089840F4E7
:100D6000006008900FE09DF814000007002805D5EA
:100D7000FFE7089840F48050089003E0099800F0DD
:100D800005FCFFE7FFE7FFE7FFE79DF81500C00759
:100D900000282CD0FFE7099800684FF4807181602B
:100DA0009DF815008007002804D5FFE7099800F09A
:100DB000FFFB1BE09DF815004007002805D5FFE765
:100DC000089840F4005008900FE09DF815000007C7
:100DD000002805D5FFE7089840F48040089003E01C
:100DE000099800F0DFFBFFE7FFE7FFE7FFE79DF86B
:100DF0001600C00700282CD0FFE7099800684FF4C0
:100E0000803181609DF816008007002804D5FFE737
:100E1000099800F0D9FB1BE09DF816004007002858
:100E200005D5FFE7089840F4004008900FE09DF8D2
:100E300016000007002805D5FFE7089840F4803029
:100E4000089003E0099800F0B9FBFFE7FFE7FFE730
:100E5000FFE7FFE79DF81C000007002810D5FFE71B
:100E60009DF81000C006002809D5FFE7089840F457
:100E700000700890099800681021C160FFE7FFE743
:100E80009DF81C00400700280FD5FFE79DF81000D3
:100E90000007002808D5FFE7099800680821C1600D
:100EA000099800F0E5FAFFE7FFE79DF81C008007CE
:100EB00000280CD5FFE709980068C06810F0030F00
:100EC00004D0FFE7099800F0D9FAFFE7FFE79DF8A3
:100ED0001C004006002810D5FFE79DF80C00C00656
:100EE000002809D5FFE7089840F480600890099829
:100EF000006810210161FFE7FFE79DF81C008006F4
:100F000000280FD5FFE79DF80C000007002808D542
:100F1000FFE70998006808210161099800F0DAFAF2
:100F2000FFE7FFE79DF81C00C00600280CD5FFE78F
:100F300009980068006910F0030F04D0FFE70998D2
:100F400000F0CEFAFFE7FFE79DF81E0080070028BB
:100F50000FD5FFE79DF81800C006002808D5FFE769
:100F60000998006810214160099800F0BFFAFFE776
:100F7000FFE79DF81E00C00700280FD0FFE79DF88F
:100F800018000007002808D5FFE709980068082125
:100F90004160099800F01EFBFFE7FFE79DF81D0088
:100FA0000006002840F18F80FFE79DF818004007F9
:100FB000002840F18380FFE79DF81D00C00700284E
:100FC0000BD0FFE79DF80800C007002805D0FFE719
:100FD000089840F001000890FFE79DF81D00800789
:100FE00000280BD5FFE79DF808008007002805D5ED
:100FF000FFE7089840F002000890FFE79DF81D0009
:10100000400700280BD5FFE79DF80800400700289F
:1010100005D5FFE7089840F004000890FFE79DF829
:101020001D000007002848D5FFE79DF8080010F0D4
:10103000700F42D0FFE7029800F0700001461028C0
:10104000009114D0FFE70098202815D0FFE7009802
:10105000302816D0FFE70098402817D0FFE7009807
:10106000502818D0FFE70098602819D01DE0089894
:1010700040F00800089019E0089840F0100008902F
:1010800014E0089840F0200008900FE0089840F025
:10109000400008900AE0089840F08000089005E0C1
:1010A000089840F48070089000E0FFE70998006815
:1010B000816921F070018161FFE7FFE7099800680D
:1010C00004214160FFE70898002809D0FFE708984D
:1010D00009994A6A104348620998FFF7A5FCFFE79F
:1010E0000AB080BD80B584B0014602900298002805
:1010F000009104D1FFE701208DF80F00E6E002988F
:1011000090F82000002804D1FFE7029800F0E2F8F0
:10111000FFE702980068016841F00101016000F0FA
:101120008BFC0190FFE702980068406810F0010F07
:1011300017D1FFE700F080FCDDF804E0A0EB0E0023
:101140000B280DD3FFE70298416A41F40031416258
:101150000298052180F8201001208DF80F00B5E0DD
:10116000E1E702980068016821F00201016000F0E7
:1011700063FC0190FFE702980068406810F0020FDE
:1011800017D0FFE700F058FCDDF804E0A0EB0E00FC
:101190000B280DD3FFE70298416A41F40031416208
:1011A0000298052180F8201001208DF80F008DE0B5
:1011B000E1E70298007E012807D1FFE70298006866
:1011C000016841F08001016006E002980068016852
:1011D00021F080010160FFE70298407E012807D1DD
:1011E000FFE702980068016841F04001016006E0F5
:1011F00002980068016821F040010160FFE7029851
:10120000807E012807D1FFE702980068016841F05D
:101210002001016006E002980068016821F02001C9
:101220000160FFE70298C07E012807D1FFE702981E
:101230000068016821F01001016006E00298006872
:10124000016841F010010160FFE70298007F01286A
:1012500007D1FFE702980068016841F008010160CA
:1012600006E002980068016821F008010160FFE7CC
:101270000298407F012807D1FFE7029800680168C3
:1012800041F00401016006E002980068016821F065
:1012900004010160FFE70298016842688368D0F8A2
:1012A0000CC043EA0C03D0F810C043EA0C034069B9
:1012B0001843013A1043C861029800214162029824
:1012C000012280F820208DF80F10FFE79DF80F0015
:1012D00004B080BD80B596B00146159000201490F2
:1012E00013901290119010901598006846F20042E9
:1012F000C4F2000290420A914CD1FFE740F2700024
:10130000C2F200000168013101600068012813D1B8
:10131000FFE7FFE700200F9043F64000C4F2020011
:10132000016841F000710160006800F000700F90EA
:101330000F980990FFE7FFE7FFE700200E9043F6C4
:101340003000C4F20200016841F008010160006849
:1013500000F008000E900E980890FFE70320109010
:10136000022111910021129113900920149040F64E
:101370000040C4F2020010AA0791114600F058F98B
:10138000142006900799079A00F03CFC069800F09C
:101390002DFC6AE01598006846F60001C4F20001D1
:1013A000884261D1FFE7FFE700200D9043F640003F
:1013B000C4F20200016841F080610160006800F041
:1013C00080600D900D980590FFE740F27000C2F22A
:1013D00000000168013101600068012813D1FFE7B6
:1013E000FFE700200C9043F64000C4F202000168C1
:1013F00041F000710160006800F000700C900C98E2
:101400000490FFE7FFE7FFE700200B9043F6300072
:10141000C4F20200016841F002010160006800F0BE
:1014200002000B900B980390FFE74FF44050109090
:101430000220119000201290032113910921149190
:1014400040F20041C4F2020110AA0290084611467F
:1014500000F0EEF8402001900299029A00F0D2FBD1
:10146000019800F0C3FBFFE7FFE716B080BD000066
:1014700082B001460190009102B0704780B58CB0F7
:1014800001460B900B98002204AB0DF1080C019162
:1014900011461A466346FFF7CDFA049940F201223D
:1014A0009142009013D1FFE79DF808009DF80910C4
:1014B00041EA002040F21411C2F2000148809DF878
:1014C0000A009DF80B2042EA0020088000E0FFE7B8
:1014D0000CB080BD82B001460190009102B070470F
:1014E00082B001460190009102B0704782B001467F
:1014F0000190009102B0704780B584B0014602901F
:10150000029890F820000128009132D1FFE702985C
:10151000022180F8201002980068016821F0010182
:10152000016000F089FA0190FFE7029800684068C6
:1015300010F0010F17D0FFE700F07EFADDF804E0AD
:10154000A0EB0E000B280DD3FFE70298416A41F48F
:10155000003141620298052180F8201001208DF8A9
:101560000F000FE0E1E70298002141628DF80F10B3
:1015700008E00298416A41F40021416201208DF89F
:101580000F00FFE79DF80F0004B080BD82B0014658
:101590000190009102B0704782B001460190009125
:1015A00002B0704782B001460190009102B07047CE
:1015B00082B001460190009102B0704782B00146AE
:1015C0000190009102B0704782B0014601900091F5
:1015D00002B0704782B001460190009102B070479E
:1015E00080B584B001460390009100F025FA029086
:1015F0000398019001980130002809D0FFE740F2DC
:101600000400C2F200000078019908440190FFE74D
:10161000FFE700F011FADDF808E0A0EB0E00DDF8BE
:1016200004E0704501D2FFE7F3E704B080BD00009D
:1016300093B00A4603461290119100200F900E902D
:101640000D9010900B920A93FFE710980F2800F26C
:10165000F181FFE71098012101FA00F00F90119835
:1016600000680F9908400E900E980F99884240F03C
:10167000DC81FFE71198406800F00300012807D0E3
:10168000FFE71198406800F0030002282FD1FFE720
:10169000129880680D9010984000032101FA00F024
:1016A0000D9921EA00000D901198C0681099490029
:1016B00088400D9908430D900D98129988601298F2
:1016C00040680D901098012101FA00F00D9921EA6F
:1016D00000000D9011984068C0F3001010998840E8
:1016E0000D9908430D900D9812994860FFE71198E5
:1016F000406800F00300032818D0FFE71298C06884
:101700000D9010984000032101FA00F00D9921EA94
:1017100000000D90119880681099490088400D993B
:1017200008430D900D981299C860FFE71198406822
:1017300000F00300022828D1FFE7129810994FF615
:10174000FC72C7F6FF7202EA51010844006A0D906C
:10175000109800F0070080000F2101FA00F00D99A9
:1017600021EA00000D9011980069109901F007011D
:10177000890088400D9908430D900D981299109B8F
:1017800002EA530211440862FFE7129800680D90C4
:1017900010984000032101FA00F00D9921EA0000A1
:1017A0000D901198406800F003001099490088409E
:1017B0000D9908430D900D98129908601198807941
:1017C0008007002800F03081FFE7FFE700200C9041
:1017D00043F64400C4F20200016841F48041016014
:1017E000006800F480400C900C980990FFE7109876
:1017F00020F0030043F60801C4F2010140580D90A7
:10180000109800F0030080000F2101FA00F00D99FC
:1018100021EA00000D9012980021C4F202018842D2
:1018200003D1FFE7002008907AE0129840F20041CF
:10183000C4F20201884203D1FFE7012007906CE067
:10184000129840F60001C4F20201884203D1FFE77A
:10185000022006905EE0129840F60041C4F20201B8
:10186000884203D1FFE70320059050E0129841F22F
:101870000001C4F20201884203D1FFE70420049072
:1018800042E0129841F20041C4F20201884203D1C1
:10189000FFE70520039034E0129841F60001C4F2FE
:1018A0000201884203D1FFE70620029026E0129849
:1018B00041F60041C4F20201884203D1FFE707204C
:1018C000019018E0129842F20001C4F2020188422D
:1018D00003D1FFE7082000900AE0129842F200418D
:1018E000C4F202010A22884208BF09220092FFE7DF
:1018F00000980190FFE701980290FFE7029803909B
:10190000FFE703980490FFE704980590FFE7059828
:101910000690FFE706980790FFE707980890FFE713
:101920000898C0B2109901F00301890088400D9910
:1019300008430D900D98109921F0030143F6080219
:10194000C4F20102885043F60840C4F20100006866
:101950000D900E980D9921EA00000D901198807954
:10196000C006002805D5FFE70E980D9908430D9095
:10197000FFE70D9843F60841C4F20101086043F601
:101980000C40C4F2010000680D900E980D9921EAF8
:1019900000000D90119880798006002805D5FFE79A
:1019A0000E980D9908430D90FFE70D9843F60C41F2
:1019B000C4F20101086043F60440C4F2010000686B
:1019C0000D900E980D9921EA00000D9011988079E4
:1019D0008007002805D5FFE70E980D9908430D9064
:1019E000FFE70D9843F60441C4F20101086043F695
:1019F0000040C4F2010000680D900E980D9921EA94
:101A000000000D9011988079C007002805D0FFE7ED
:101A10000E980D9908430D90FFE70D9843F600418D
:101A2000C4F201010860FFE7FFE7FFE7109801300B
:101A300010900AE613B0704740F23410C2F2000072
:101A40000068704740F20400C2F20000007840F2E3
:101A50003411C2F200010A681044086070470000A7
:101A600080B582B043F60040C4F20200016841F440
:101A700000710160016841F480610160016841F416
:101A800080710160032000F0E1F80F2000F006F8FB
:101A9000019000F083F8002002B080BD80B590B0C6
:101AA00001460F900020089007900391FFE7002067
:101AB000049043F64000C4F20200016841F0800146
:101AC0000160006800F08000049004980290FFE735
:101AD0000AA806A900F064FA0D9808900898002852
:101AE00004D1FFE700F096FA099004E000F092FAC2
:101AF00040000990FFE709984DF68361C4F21B315D
:101B0000A0FB01014FF0FF3202EB9141079140F23F
:101B1000CC01C2F2000141F60042C4F200020A60A8
:101B200040F2E732CA60079A4A6000220A618A607E
:101B30008A610190084600F081FE8DF817009DF83B
:101B40001700002826D1FFE740F2CC00C2F20000C7
:101B500000F0D0FE8DF817009DF81700002818D16E
:101B6000FFE72C2000F042F80F980F280CD8FFE771
:101B70000F992C20002200F045F80F9840F2080140
:101B8000C2F20001086003E001208DF81700FFE7B2
:101B9000FFE7FFE79DF8170010B080BD84B0FFE7B6
:101BA0000020039043F64400C4F20200016841F4AF
:101BB00080410160006800F4804003900398019028
:101BC000FFE7FFE70020029043F64000C4F2020066
:101BD000016841F080510160006800F0805002907F
:101BE00002980090FFE704B07047000080B582B013
:101BF00001468DF807009DF90700009101F02AFBCE
:101C000002B080BD80B58AB013468C4686468DF8FA
:101C1000270008910792002006900593CDF810C088
:101C2000CDF80CE001F032FB069006980899079A6F
:101C30009DF92730029301F0A7F802990190084618
:101C4000019901F02BFB0AB080BD000080B582B085
:101C5000014601900198009101F046FB02B080BD61
:101C600080B584B000200290FFE70020019043F689
:101C70004000C4F20200016841F080510160006838
:101C800000F08050019001980090FFE74020C4F2DE
:101C90000E2001210160FFF7CFFE0290FFE747F21F
:101CA0000400C4F20000006800F48030B0F5803F0A
:101CB0000FD0FFE7FFF7C0FEDDF808E0A0EB0E0055
:101CC000B0F57A7F04D9FFE703208DF80F0027E0F5
:101CD000E5E74420C4F20E2001210160FFF7ACFECD
:101CE0000290FFE747F20400C4F20000006800F42D
:101CF0000030B0F5003F0FD0FFE7FFF79DFEDDF8A5
:101D000008E0A0EB0E00B0F57A7F04D9FFE70320CE
:101D10008DF80F0004E0E5E700208DF80F00FFE7E5
:101D20009DF80F0004B080BD80B588B00A46034618
:101D300006900591069800280392029304D1FFE7CC
:101D400001208DF81F0026E1059843F60041C4F2FA
:101D50000201096801F00F01884212D9FFE70598D6
:101D600043F60041C4F202010870086800F00F0059
:101D70000599884204D0FFE701208DF81F000AE191
:101D8000FFE706980068800700282AD5FFE7069835
:101D900000684007002809D5FFE743F60800C4F2B1
:101DA0000200016841F4E0510160FFE70698006815
:101DB0000007002809D5FFE743F60800C4F2020037
:101DC000016841F460410160FFE743F60800C4F296
:101DD0000200016821F0F001069A92681143016047
:101DE000FFE706980068C007002870D0FFE7069854
:101DF0004068012811D1FFE743F60000C4F2020059
:101E0000006800F400300021B1EB504F04D1FFE72F
:101E100001208DF81F00BEE02CE0069840680228E3
:101E200005D0FFE706984068032811D1FFE743F685
:101E30000000C4F20200006800F000700021B1EB65
:101E4000506F04D1FFE701208DF81F00A3E010E0E0
:101E500043F60000C4F20200006800F00200002116
:101E6000B1EB500F04D1FFE701208DF81F0092E085
:101E7000FFE7FFE743F60800C4F20200016821F023
:101E80000301069A526811430160FFF7D5FD0490E3
:101E9000FFE743F60800C4F20200006800F00C00FF
:101EA00006994968B0EB810F10D0FFE7FFF7C4FD3A
:101EB000DDF810E0A0EB0E0041F2893E704504D33E
:101EC000FFE703208DF81F0065E0E2E7FFE70598D4
:101ED00043F60041C4F20201096801F00F01884293
:101EE00012D2FFE7059843F60041C4F202010870E0
:101EF000086800F00F000599884204D0FFE7012030
:101F00008DF81F0047E0FFE70698006840070028AB
:101F10000CD5FFE743F60800C4F20200016821F483
:101F2000E051069AD26811430160FFE70698006805
:101F3000000700280DD5FFE743F60800C4F20200B1
:101F4000016821F46041069A126941EAC201016008
:101F5000FFE700F073F843F6080EC4F2020EDEF855
:101F600000E0CEF3031E43F2B631C0F6000111F8D3
:101F70000E10C84040F20001C2F20001086040F2B9
:101F80000800C2F200000068FFF788FD00218DF80C
:101F90001F100190FFE79DF81F0008B080BD0000F2
:101FA00084B00A4603460390029103980F21016012
:101FB00043F60800C4F20200016801F00301DDF8F5
:101FC0000CC0CCF80410016801F0F001DDF80CC081
:101FD000CCF80810016801F4E051DDF80CC0CCF831
:101FE0000C10006800F46040C0080399086143F6D3
:101FF0000040C4F20200006800F00F00029908607F
:102000000192009304B0704740F20000C2F2000059
:102010000068704780B5FFF7F7FF43F6080EC4F27B
:10202000020EDEF800E0CEF3822E43F2C631C0F697
:10203000000111F80E10C84080BD000080B586B0C8
:102040000020059004900390029043F60800C4F22B
:102050000200006800F00C0001460028019108D041
:10206000FFE7019804280AD0FFE7019808280CD060
:102070004FE042F20040C0F2F40002904FE041F61F
:102080000030C0F2B700029049E043F60400C4F209
:102090000200016801F03F010591006810F4800F13
:1020A00013D0FFE743F60400C4F202000068C0F357
:1020B000881041F60031C0F2B701A0FB0101059A7A
:1020C0000023FEF7EBF8049012E043F60400C4F29C
:1020D00002000068C0F3881042F20041C0F2F4012F
:1020E000A0FB0101059A0023FEF7D8F80490FFE752
:1020F00043F60400C4F20200006800F440300221FC
:1021000001EBD030039004980399B0FBF1F00290FA
:1021100005E042F20040C0F2F4000290FFE70298AE
:1021200006B080BD80B588B00146069006980028AC
:10213000019104D1FFE701208DF81F006EE306989E
:102140000068C007002800F0AB80FFE743F60800F6
:10215000C4F20200006800F00C00042813D0FFE76E
:1021600043F60800C4F20200006800F00C000828E2
:102170001FD1FFE743F60400C4F20200006810F428
:10218000800F16D0FFE743F60000C4F2020000689B
:1021900000F400300021B1EB504F09D0FFE7069862
:1021A0004068002804D1FFE701208DF81F0035E3C7
:1021B00075E0FFE706984068B0F5803F09D1FFE77A
:1021C00043F60000C4F20200016841F4803101606E
:1021D00020E006984068B0F5A02F0DD1FFE743F648
:1021E0000000C4F20200016841F48021016001682E
:1021F00041F4803101600CE043F60000C4F20200BB
:10220000016821F480310160016821F480210160BE
:10221000FFE7FFE7FFE70698406800281FD0FFE7C9
:10222000FFF70AFC0590FFE743F60000C4F2020046
:10223000006800F400300021B1EB504F0ED1FFE7F1
:10224000FFF7FAFBDDF814E0A0EB0E00652804D3DD
:10225000FFE703208DF81F00E0E2E5E71EE0FFF74F
:10226000EBFB0590FFE743F60000C4F202000068B4
:1022700000F400300021B1EB504F0ED0FFE7FFF724
:10228000DBFBDDF814E0A0EB0E00652804D3FFE7CC
:1022900003208DF81F00C1E2E5E7FFE7FFE7FFE756
:1022A000069800688007002840F19B80FFE743F60E
:1022B0000800C4F20200006810F00C0F13D0FFE712
:1022C00043F60800C4F20200006800F00C00082881
:1022D0002CD1FFE743F60400C4F20200006810F4BA
:1022E000800F23D1FFE743F60000C4F2020000682C
:1022F00000F002000021B1EB500F09D0FFE7069873
:10230000C068012804D0FFE701208DF81F0085E296
:1023100043F60000C4F20200016821F0F801069AB9
:10232000126941EAC2010160FFE759E00698C068FE
:10233000002830D0FFE70020C4F2472001210160CF
:10234000FFF77AFB0590FFE743F60000C4F20200B6
:10235000006800F002000021B1EB500F0ED1FFE742
:10236000FFF76AFBDDF814E0A0EB0E00032804D3AE
:10237000FFE703208DF81F0050E2E5E743F6000079
:10238000C4F20200016821F0F801069A126941EADC
:10239000C201016023E00020C4F247200021016057
:1023A000FFF74AFB0590FFE743F60000C4F2020086
:1023B000006800F002000021B1EB500F0ED0FFE7E3
:1023C000FFF73AFBDDF814E0A0EB0E00032804D37E
:1023D000FFE703208DF81F0020E2E5E7FFE7FFE7B6
:1023E000FFE7069800680007002850D5FFE7069829
:1023F0004069002825D0FFE740F68060C4F24720FE
:1024000001210160FFF718FB0590FFE743F6740018
:10241000C4F20200006800F002000021B1EB500F8E
:102420000ED1FFE7FFF708FBDDF814E0A0EB0E008C
:10243000032804D3FFE703208DF81F00EEE1E5E752
:1024400024E040F68060C4F2472000210160FFF7DD
:10245000F3FA0590FFE743F67400C4F20200006847
:1024600000F002000021B1EB500F0ED0FFE7FFF7A4
:10247000E3FADDF814E0A0EB0E00032804D3FFE735
:1024800003208DF81F00C9E1E5E7FFE7FFE70698A5
:1024900000684007002840F1D680FFE700208DF853
:1024A0000F0043F64000C4F20200006810F0805FA5
:1024B00016D1FFE7FFE70020029043F64000C4F288
:1024C0000200016841F080510160006800F0805016
:1024D000029002980090FFE701208DF80F00FFE7BF
:1024E00047F20000C4F20000006810F4807F24D19D
:1024F000FFE747F20000C4F20000016841F4807178
:102500000160FFF799FA0590FFE747F20000C4F277
:102510000000006810F4807F0ED1FFE7FFF78CFA0F
:10252000DDF814E0A0EB0E00032804D3FFE703203E
:102530008DF81F0072E1E8E7FFE7FFE70698806883
:10254000012809D1FFE743F67000C4F202000168D8
:1025500041F0010101601FE00698806805280DD157
:10256000FFE743F67000C4F20200016841F0040185
:102570000160016841F0010101600CE043F6700068
:10258000C4F20200016821F001010160016821F03C
:1025900004010160FFE7FFE7FFE706988068002875
:1025A00021D0FFE7FFF748FA0590FFE743F67000F8
:1025B000C4F20200006800F002000021B1EB500FED
:1025C00010D1FFE7FFF738FADDF814E0A0EB0E00BA
:1025D00041F2893E704504D3FFE703208DF81F00C8
:1025E0001CE1E3E720E0FFF727FA0590FFE743F659
:1025F0007000C4F20200006800F002000021B1EB9C
:10260000500F10D0FFE7FFF717FADDF814E0A0EB4A
:102610000E0041F2893E704504D3FFE703208DF898
:102620001F00FBE0E3E7FFE79DF80F00012809D159
:10263000FFE743F64000C4F20200016821F0805138
:102640000160FFE7FFE706988069002800F0E2805C
:10265000FFE743F60800C4F20200006800F00C0037
:10266000082800F08B80FFE706988069022860D177
:10267000FFE76020C4F2472000210160FFF7DCF98A
:102680000590FFE743F60000C4F20200006800F086
:1026900000700021B1EB506F0ED0FFE7FFF7CCF9CF
:1026A000DDF814E0A0EB0E00032804D3FFE70320BD
:1026B0008DF81F00B2E0E5E70698C169026A436A37
:1026C000D0F828C0114341EA83114FEACC324FF6CB
:1026D000FF739A43A2F580321143C06A41EA006059
:1026E00043F60401C4F2020108606020C4F24720EE
:1026F00001210160FFF7A0F90590FFE743F6000014
:10270000C4F20200006800F000700021B1EB506FCD
:102710000ED1FFE7FFF790F9DDF814E0A0EB0E0013
:10272000032804D3FFE703208DF81F0076E0E5E7D8
:1027300023E06020C4F2472000210160FFF77CF90C
:102740000590FFE743F60000C4F20200006800F0C5
:1027500000700021B1EB506F0ED0FFE7FFF76CF96E
:10276000DDF814E0A0EB0E00032804D3FFE70320FC
:102770008DF81F0052E0E5E7FFE74AE00698806920
:10278000012804D1FFE701208DF81F0046E043F641
:102790000400C4F2020000680490069880690128D1
:1027A00031D0FFE7049800F480000699C969884297
:1027B00029D1FFE7049800F03F000699096A884292
:1027C00021D1FFE7049847F6C07108400699496A8D
:1027D000B0EB811F17D1FFE7049800F44030069951
:1027E000896AC9034FF6FF729143A1F5803188428F
:1027F00009D1FFE7049800F070600699C96AB0EB50
:10280000016F04D0FFE701208DF81F0006E0FFE70D
:10281000FFE7FFE700208DF81F00FFE79DF81F008E
:1028200008B080BD82B001460190009102B07047AF
:1028300082B001460190009102B0704780B584B02B
:102840000146029002980028019104D1FFE701207F
:102850008DF80F0043E0029890F83D00002808D161
:10286000FFE70298002180F83C10029800F03CF845
:10287000FFE70298022180F83D10029850F8041BEF
:1028800000900846009900F041FB0298012180F871
:102890004610FFE70298012180F83E10029880F868
:1028A0003F10029880F84010029880F84110FFE72E
:1028B000FFE70298012180F84210029880F8431047
:1028C000029880F84410029880F84510FFE70298BB
:1028D000012180F83D1000208DF80F00FFE79DF8E2
:1028E0000F0004B080BD000082B00146019000914D
:1028F00002B0704784B001460290029890F83D0003
:102900000128009104D0FFE701208DF80F006AE054
:102910000298022180F83D1002980068C16841F0D9
:102920000101C160029800680021C4F201018842DF
:102930003CD0FFE702980068B0F1804F36D0FFE747
:102940000298006840F20041C4F2000188422DD094
:10295000FFE70298006840F60001C4F200018842D7
:1029600024D0FFE70298006840F60041C4F200015D
:1029700088421BD0FFE70298006840F20041C4F291
:102980000101884212D0FFE70298006844F200017A
:10299000C4F20101884209D0FFE70298006841F6BD
:1029A0000001C4F20001884212D1FFE702980068DA
:1029B000806800F0070001900198062807D0FFE723
:1029C00002980068016841F001010160FFE706E03C
:1029D00002980068016841F001010160FFE70020F2
:1029E0008DF80F00FFE79DF80F0004B0704700005E
:1029F00082B001460190009102B0704780B584B06A
:102A00000146039003980068C0680290039800682C
:102A100000690190019880070028009124D5FFE704
:102A20000298800700281ED5FFE7039800686FF022
:102A30000201016103980121017703980068806910
:102A400010F0030F04D0FFE70398FFF7D1FF06E073
:102A5000039800F0D7F8039800F0DAF8FFE703983E
:102A600000210177FFE7FFE701984007002824D500
:102A7000FFE70298400700281ED5FFE7039800688B
:102A80006FF0040101610398022101770398006847
:102A9000806910F4407F04D0FFE70398FFF7A8FF98
:102AA00006E0039800F0AEF8039800F0B1F8FFE7F5
:102AB000039800210177FFE7FFE70198000700284E
:102AC00024D5FFE70298000700281ED5FFE70398EA
:102AD00000686FF0080101610398042101770398F1
:102AE0000068C06910F0030F04D0FFE70398FFF7F8
:102AF0007FFF06E0039800F085F8039800F088F85F
:102B0000FFE7039800210177FFE7FFE70198C00680
:102B1000002824D5FFE70298C00600281ED5FFE74D
:102B2000039800686FF01001016103980821017794
:102B300003980068C06910F4407F04D0FFE7039851
:102B4000FFF756FF06E0039800F05CF8039800F0EA
:102B50005FF8FFE7039800210177FFE7FFE701989F
:102B6000C00700280FD0FFE70298C007002809D04F
:102B7000FFE7039800686FF001010161039800F01E
:102B80004DF8FFE7FFE70198000600280FD5FFE7A3
:102B900002980006002809D5FFE7039800686FF047
:102BA000800101610398FFF73DFEFFE7FFE7019811
:102BB000400600280FD5FFE702984006002809D5F7
:102BC000FFE7039800686FF040010161039800F08F
:102BD00039F8FFE7FFE70198800600280FD5FFE7E7
:102BE00002988006002809D5FFE7039800686FF077
:102BF000200101610398FFF71BFEFFE7FFE704B028
:102C000080BD000082B001460190009102B0704783
:102C100082B001460190009102B0704780B582B049
:102C2000014601900198006841F60042C4F200029A
:102C30009042009103D1FFE7FEF704FFFFE702B0E7
:102C400080BD000082B001460190009102B0704743
:102C5000FFE7FEE780B540F27C00C2F2000046F2DA
:102C60000041C4F200010160052141600021816042
:102C7000C1604FF4003202614FF48002426101767C
:102C8000012242768176C27601774177FEF72AFAF1
:102C9000002803D0FFE7FDF7FDFCFFE780BD000043
:102CA00080B540F2A400C2F2000046F60001C4F272
:102CB000000101600521416000218160C1604FF485
:102CC000003202614FF480024261017641768176E2
:102CD000C17601774177FEF705FA002803D0FFE7B8
:102CE000FDF7D8FCFFE780BD88B0FFE70020079024
:102CF00043F63000C4F20200016841F001010160B6
:102D0000006800F00100079007980390FFE7FFE7D5
:102D10000020069043F63000C4F20200016841F042
:102D200008010160006800F0080006900698029013
:102D3000FFE7FFE70020059043F63000C4F20200F1
:102D4000016841F080010160006800F0800005909A
:102D500005980190FFE7FFE70020049043F630005C
:102D6000C4F20200016841F002010160006800F055
:102D70000200049004980090FFE708B0704700003C
:102D8000FFE7FEE7FFE7FEE780B58BB013468C4612
:102D900086460A90099108920A9800F00700079069
:102DA0000798C0F1070005280493CDF80CC0CDF8B2
:102DB00008E003D3FFE70420019004E00798C0F186
:102DC00007000190FFE70198069007980430062855
:102DD00003D8FFE70020009003E007980338009035
:102DE000FFE70098059009980699012202FA01F17F
:102DF0000139084005998840089B02FA01F1013920
:102E0000194008430BB080BD7047000070470000B8
:102E10007047000080B596B00AA83021FDF7B5FADA
:102E2000002009900890079006900590FFE7002089
:102E3000049043F64000C4F20200016841F0805162
:102E40000160006800F08050049004980290FFE751
:102E5000FFE70020039047F20000C4F20000016881
:102E600041F440410160006800F440400390039841
:102E70000190FFE702200A9001210D9110210E918F
:102E800010900021119108211291B42113911490F6
:102E9000042015900AA8FFF745F9002803D0FFE7A2
:102EA000FDF7F8FBFFE7FEF7DBFE002803D0FFE7A6
:102EB000FDF7F0FBFFE70F200590022006900020B1
:102EC00007904FF4A05008904FF48050099005A847
:102ED0000521FEF729FF002803D0FFE7FDF7DAFB05
:102EE000FFE716B080BD00004EF68850CEF200001D
:102EF000016841F4700101607047000080B540F244
:102F0000CC00C2F20000FFF779FD80BD85B00A4613
:102F100003460490039104980068029004980021ED
:102F2000C4F2010188420192009325D0FFE7049882
:102F3000B0F1804F20D0FFE7049840F20041C4F286
:102F40000001884218D0FFE7049840F60001C4F25F
:102F50000001884210D0FFE7049840F60041C4F217
:102F60000001884208D0FFE7049840F20041C4F213
:102F7000010188420AD1FFE7029820F07000029018
:102F800003984068029908430290FFE704980021E3
:102F9000C4F20101884255D0FFE70498B0F1804F98
:102FA00050D0FFE7049840F20041C4F2000188428B
:102FB00048D0FFE7049840F60001C4F200018842BF
:102FC00040D0FFE7049840F60041C4F20001884277
:102FD00038D0FFE7049840F20041C4F20101884272
:102FE00030D0FFE7049844F20001C4F201018842A6
:102FF00028D0FFE7049844F20041C4F2010188425E
:1030000020D0FFE7049844F60001C4F20101884291
:1030100018D0FFE7049841F60001C4F2000188428D
:1030200010D0FFE7049841F60041C4F20001884245
:1030300008D0FFE7049842F20001C4F20001884280
:103040000AD1FFE7029820F4407002900398C0680C
:10305000029908430290FFE7029820F0800003994C
:1030600049690843029002980499086003988068AF
:103070000499C86203980068049988620498002142
:10308000C4F20101884208D0FFE7049840F20041F1
:10309000C4F20101884205D1FFE703980069049951
:1030A0000863FFE70498012141610498006910F06A
:1030B000010F06D0FFE70498016921F001010161C9
:1030C000FFE705B070470000FFE7FEE780B500F0BE
:1030D0002BF980BD80B58AB000200090019002904D
:1030E000039004900590012107910690089140F209
:1030F0007C00C2F200006946FDF7B8FB002803D04F
:10310000FFE7FDF7C7FAFFE740F27C00C2F20000DC
:10311000FEF7F2F9002803D0FFE7FDF7BBFAFFE75F
:1031200040F27C00C2F200000221FDF7B7FA00284D
:1031300003D0FFE7FDF7AEFAFFE70AB080BD00005D
:1031400080B58EB00A4603460D90ADF832100D984A
:10315000BDF83210090AD0F810C090F814E00EF053
:10316000030EF4440CF8011CBDF83210D0F810C066
:1031700090F814E00EF0030E0CF80E10017FC90752
:10318000002904920393029029D0FFE708200990B8
:103190000020069002990A7DB0EB920F04D1FFE760
:1031A0004FF40070059003E040F2FF100590FFE738
:1031B0000020079008908DF82800FFE702988069AA
:1031C000FDF752FD002801D1FFE7F7E702980269F9
:1031D000806905A90BABFDF78FFA0190FFE70EB0F0
:1031E00080BD000070B589B0DDF834C09E4614463D
:1031F0000D46064608908DF81F10069205938DF82F
:1032000013C008989DF81F100175069981610599F2
:1032100001619DF8131001F001010177CDF80CE078
:1032200002940195009609B070BD000082B001467D
:1032300001900198012202710022C4F204228260EE
:103240004CF6CD42C4F2B312C26000220277009164
:1032500002B0704782B001468DF807009DF9070063
:10326000002800910FDBFFE79DF9070000F01F0128
:10327000012202FA01F140094EF20012CEF20002E0
:1032800042F82010FFE702B0704700004EF60C50E5
:10329000CEF200000068C0F30220704784B00A46F6
:1032A00003468DF80F0002919DF90F00002801924E
:1032B00000930ADBFFE7029800019DF90F104EF220
:1032C0000042CEF2000288540BE0029800019DF803
:1032D0000F1001F00F014EF61452CEF20002885486
:1032E000FFE704B07047000084B0014603900398E4
:1032F00000F0070001904EF60C50CEF2000002687C
:103300000292029A4FF6FF031A400292029A019B20
:1033100042EA03220023C0F2FA531A430292029AAD
:103320000260009104B0704780B540F21410C2F200
:103330000000FFF77BFF80BD80B584B000200390C4
:10334000FEF78EFB0290FFF765FDFFF7CDFCFFF760
:1033500081FCFFF7A5FC00F003F80190FFE7FEE712
:1033600080B584B0FFF7B6FEEE460120CEF800002F
:1033700040F2141EC2F2000E40F27C02C2F20002C1
:1033800040F27403C2F20003029070460299FFF704
:1033900029FFFFE740F21410C2F200004FF4C87199
:1033A000FFF7CEFE0A20FEF71BF9F3E74FF040705F
:1033B000E1EE100A7047000000000000000001026A
:1033C00003040607080900000000010203040000CE
:1033D000F83300080000002010000000E801000899
:1033E00008340008100000202845000004020008EE
:1033F000DDFCFFFF000000000024F40001000000DD
:083400001000000000000000B4
:04000005080001AD41
:00000001FF
